:020000040800F2
:1000000000280020193E00085F3E0008613E0008FD
:10001000633E0008653E0008673E000800000000DF
:10002000000000000000000000000000C102000805
:100030006B3E000800000000510300089503000813
:10004000733E0008753E0008773E00084D330008F7
:100050007B3E00087D3E00087F3E0008813E000890
:10006000833E0008853E0008873E0008893E000860
:100070008B3E00088D3E00089D300008913E000830
:1000800069300008953E0008973E0008993E000838
:100090009B3E00089D3E00089F3E0008A13E0008D0
:1000A000A33E0008A53E0008A73E0008A93E0008A0
:1000B000AB3E0008AD3E0008AF3E0008B13E000870
:1000C000B33E0008B53E0008B73E0008B93E000840
:1000D000BB3E000809390008BF3E0008C13E0008C9
:1000E000C33E0008C53E0008C73E000810B5054CD9
:1000F000237833B9044B13B10448AFF300800123D4
:10010000237010BDA00000200000000090520008E5
:10011000084B10B51BB108490848AFF300800848E8
:10012000036803B910BD074B002BFBD0BDE810409E
:10013000184700BF00000000A400002090520008F3
:10014000A000002000000000154B002B08BF134B3F
:100150009D46A3F5803A00218B460F461348144A6A
:10016000121A03F07CFF0F4B002B00D098470E4B68
:10017000002B00D098470020002104000D000D48FE
:10018000002802D00C48AFF3008003F037FF2000B6
:10019000290003F063FD03F01DFF00BF000008000D
:1001A000002800200000000000000000A000002047
:1001B000C8150020000000000000000000F1080346
:1001C0004FF0FF310022816080E80C00C3600361C2
:1001D000704700BF00230361704700BF43684B6056
:1001E0009A688A609A68516099600861036801336F
:1001F0000360704730B40D686B1C11D000F1080229
:1002000000E01A4653681C68A542FAD24B60996018
:100210008A6051600861036830BC01330360704735
:1002200002695368F2E700BF426881680369916020
:100230008268416851605A68904204BF82685A607F
:10024000002202611868013818607047064800688B
:10025000006880F3088862B661B6BFF34F8FBFF3C2
:100260006F8F00DF00BF000008ED00E008B5084B0D
:100270001B68013303D0F221064803F069FD4FF0FB
:10028000A00383F31188BFF36F8FBFF34F8FFEE797
:10029000000000208840000810B421F001014FF058
:1002A000807400E91200044B40F8202C40F80C3C0C
:1002B00010BC4038704700BF6D020008000000000D
:1002C000074B19680868B0E8F00F80F30988BFF39E
:1002D0006F8F4FF0000080F311884EF00D0E7047C5
:1002E000740100204FF0A00383F31188BFF36F8FD8
:1002F000BFF34F8F084A13680133012B136000D0FE
:100300007047064B1B6813F0FF0FF9D040F27F11C6
:10031000034803F01DBD00BF0000002004ED00E015
:100320008840000810B5084C23682BB1013B2360BE
:100330000BB983F3118810BD4FF4C371034803F068
:1003400007FD2368F2E700BF000000208840000896
:10035000EFF30980BFF36F8F0D4B1A6820E9F00FA0
:1003600010602DE908404FF0A00080F3118800F0E4
:10037000CDFF4FF0000080F31188BDE808401968F8
:100380000868B0E8F00F80F30988BFF36F8F7047FB
:100390007401002008B54FF0A00383F31188BFF368
:1003A0006F8FBFF34F8F00F0B7FD18B1034B4FF0C5
:1003B00080521A60002383F3118808BD04ED00E029
:1003C00003490448044B072208601A60704700BFC5
:1003D00014E000E03F19010010E000E010B5204BF0
:1003E00082B01A78FF21D2B2019219701B781D4C8D
:1003F000DBB28DF803309DF803309DF803101A48E6
:1004000003F0A00307220906237002600DD506221F
:1004100000E00A469DF80330511E5B00DBB28DF808
:1004200003309DF803301B06F3D4019912020C4CE3
:100430000E4BC9B202F4E062026021701A6842F405
:100440007F021A601A6842F07F421A60FFF7B8FF15
:10045000074B00221A60FFF7F9FEFFF707FF00BF06
:1004600000E400E0BC000020C000002020ED00E01F
:100470000000002008B5EFF305830F2B05D90E49C6
:100480000E4A5B5C12789A420FD80D4B0D4A1B68DE
:10049000126803F4E063934200D808BD40F2AE2135
:1004A000BDE80840084803F053BC40F29E210648CE
:1004B00003F04EFCE9E700BFF0E300E0BC000020E1
:1004C0000CED00E0C00000208840000870B5044634
:1004D000006CA56B28B92668002E32D00135A563C3
:1004E00070BD164602467EB9A06803F0ADFDA16856
:1004F000236C62680B449342A36019D323680135CF
:10050000A360A563304670BDE06803F09DFD236CD9
:10051000E2685B4221681A448A42E26002D2626861
:100520001344E360022E07D00135A563002070BD9F
:100530000135A563304670BD002D08BF01250020A0
:10054000CDE7606801F000F86660C7E7026C6AB149
:100550000B4610B4C16844681144A142C16024BF75
:100560000168C16010BC184603F06EBD704700BF43
:1005700070B50546FFF7B6FE95F8454064B2002C0D
:1005800016DD6B6AA3B105F1240605E0013CE3B278
:100590005CB26BB16B6A5BB1304600F0DFFE0028E5
:1005A000F4D0013C00F074FFE3B25CB2002BF1D157
:1005B000FF2385F84530FFF7B5FEFFF793FE95F86A
:1005C000444064B2002C16DD2B69A3B105F110067E
:1005D00005E0013CE3B25CB26BB12B695BB1304624
:1005E00000F0BCFE0028F4D0013C00F051FFE3B263
:1005F0005CB2002BF1D1FF2385F84430BDE8704098
:10060000FFF790BE70B50D460446002838D0FFF7BE
:1006100069FE226CE36B216803FB02F39A1AFF2048
:100620000A440B440026A663E26084F84400636039
:10063000A16084F84500BDB923691BB9FFF772FEBC
:10064000012070BD04F1100000F088FE0028F5D0F4
:100650000E4B4FF080521A60BFF34F8FBFF36F8F76
:10066000FFF760FE012070BD04F11000FFF7A6FD4A
:1006700004F12400FFF7A2FDFFF754FE012070BD36
:1006800040F21B11024803F063FBC0E704ED00E0F9
:1006900098400008F0B50E4683B015461C46074644
:1006A00000B334B365B3BEB148230193019B482B1B
:1006B00004D040F26311164803F04AFB4CB1002EFF
:1006C00008BF2546E7632560266401212046FFF721
:1006D00099FF204603B0F0BD4FF4AD710C4803F014
:1006E00037FBE1E74FF4A971094803F031FB002C17
:1006F000D8D14FF4AB71064803F02AFB002DD2D1BC
:10070000002ED1D040F25B11014803F021FBCBE772
:10071000984000082DE9F04784B08A4601921F46B0
:100720000446002800F09080BAF1000F00F0958098
:10073000022F6AD00026B046DFF8349127E0FFF799
:10074000F1FD00F0DBFBFFF7CDFD94F84430FF2B0B
:1007500008BF84F8448094F84530FF2B08BF84F824
:100760004580FFF7DFFD01A902A800F051FE002837
:100770005AD1FFF7B7FDA26BE36B9A4218D0FFF78F
:10078000D1FD2046FFF7F4FE00F07CFC0126FFF7C8
:10079000A9FDA26BE36B9A4221D3022F1FD0019DCA
:1007A000002D3BD0002ECAD102A800F01BFEC6E7E8
:1007B000FFF7B8FD019904F1100000F0B5FD2046E7
:1007C000FFF7D6FE00F05EFC0028DFD14FF080532B
:1007D000C9F80030BFF34F8FBFF36F8FD6E73A46AB
:1007E00051462046FFF772FE636A33BB38B1204B97
:1007F0004FF080521A60BFF34F8FBFF36F8FFFF738
:1008000091FD012004B0BDE8F087E36B012B91D08E
:1008100040F2DB21174803F09BFA8BE7FFF782FDDC
:10082000284604B0BDE8F0872046FFF7A1FE00F09F
:1008300029FC002004B0BDE8F08704F1240000F09A
:100840008DFD0028D3D1DAE740F2D921094803F021
:100850007FFABAF1000F7FF46BAF236C002B3FF4EB
:1008600067AF40F2DA21034803F072FA60E700BF95
:1008700004ED00E09840000810B5002282B000901E
:100880000B4601201146FFF705FF044638B100234F
:1008900043600360C3601A461946FFF73BFF2046DA
:1008A00002B010BD2DE9F8430F4691461E4604469E
:1008B000002846D0002F4BD0022E29D0FFF7DAFDBA
:1008C000EFF311884FF0A00383F31188BFF36F8F0C
:1008D000BFF34F8FA26BE36B9A4206D3022E04D074
:1008E000002088F31188BDE8F88394F8455032461B
:1008F00039466DB22046FFF7E9FD6B1C11D001357A
:100900006DB284F84550012088F31188BDE8F88362
:10091000E36B012BD2D040F2A131124803F018FA58
:10092000CCE7636A002BEED004F1240000F016FD42
:100930000028E8D0B9F1000FE5D00120C9F8000087
:10094000CFE740F29F31074803F002FA002FB3D1FE
:10095000236C002BB0D04FF46871024803F0F8F913
:10096000AAE700BF984000082DE9F04784B0894607
:1009700001929A460446002800F0A180B9F1000FC8
:1009800000F0A68000263746DFF860810CE0FFF714
:10099000A9FCA36B002B37D0FFF7C4FC2046FFF760
:1009A000E7FD00F06FFB0126FFF79CFCA56B002D17
:1009B0004ED1019B002B45D0002E3FD0FFF7B2FC5B
:1009C00000F09CFAFFF78EFC94F84430FF2B08BF30
:1009D00084F8447094F84530FF2B08BF84F84570C4
:1009E000FFF7A0FC01A902A800F012FD0028CED05C
:1009F0002046FFF7BDFD00F045FBFFF773FCA36B3E
:100A000003B3FFF78FFCCEE7FFF78CFC2368002BC6
:100A100033D0019904F1240000F086FC2046FFF752
:100A2000A7FD00F02FFB0028BDD14FF08053C8F880
:100A30000030BFF34F8FBFF36F8FB4E702A800F011
:100A4000D1FCBBE7FFF76EFC002004B0BDE8F087E7
:100A500049462046E668FFF779FDBAF1000F14D148
:100A60002368013DA563002B3CD0236903BBFFF73E
:100A700059FC012004B0BDE8F087FFF733FC606843
:100A800000F012FDFFF74EFCC3E7636AE660002B3F
:100A9000EDD004F1240000F061FC0028E7D0134BF6
:100AA0004FF080521A60BFF34F8FBFF36F8FDEE7B6
:100AB00004F1100000F052FC0028F0D1D7E740F21A
:100AC000DC410B4803F044F9B9F1000F7FF45AAF51
:100AD000236C002B3FF456AF40F2DD41044803F095
:100AE00037F94FE700F086FD6060BEE704ED00E0F7
:100AF000984000082DE9F84389469046054648B3DA
:100B0000B9F1000F2ED0FFF7B5FCEFF311874FF0CE
:100B1000A00383F31188BFF36F8FBFF34F8FAC6BCC
:100B200024B9204687F31188BDE8F88395F844601E
:100B30004946284676B2FFF709FD013C731CAC63B9
:100B400019D0013676B285F84460012087F3118808
:100B5000BDE8F8834FF4B4610F4803F0F9F8B9F138
:100B6000000FD0D12B6C002BCDD040F2A1510A4800
:100B700003F0EEF8C7E72B69002BE6D005F1100073
:100B800000F0ECFB0028E0D0B8F1000FDDD0012030
:100B9000C8F80000C6E700BF98400008034A044BAD
:100BA0001268D268D26852681A607047C400002088
:100BB00068010020F8B51C4B1C4D1E682B680446CC
:100BC000181D0F46FFF730FB40B92B681849D86A4B
:100BD0000A680123834022EA03030B60631C19D0D7
:100BE0002B683444A6425C60104B0BD8114A106845
:100BF00019680431FFF7FEFA0F4B1A68944238BFA8
:100C00001C60F8BD0D4A10681968BDE8F840043151
:100C1000FFF7F0BA002FE3D0296809480431BDE896
:100C2000F840FFF7DBBA00BF70010020740100201C
:100C3000BC010020C400002068010020E400002066
:100C4000A8010020F8B5194B0022194D1A602A6836
:100C50002B6812681B6B9A421BD9164B1C68B4FA9E
:100C600084F4E4B2C4F11F04A700134E3B1956F8F4
:100C70002330A3B13C44A4003219536808345B68A4
:100C800034445360A34204BF5B685360DB682B604D
:100C9000F8BD28682968343103F046F8DDE740F6EE
:100CA000F621064803F054F8E4E700BFC001002035
:100CB00074010020BC010020EC000020AC400008C2
:100CC0002DE9F047099C0A9D002C7DD0002D00F0F5
:100CD00081809946074602F18040013804EB80008C
:100CE00020F007082C6305F133004C1E0F3114F877
:100CF000016F00F8016F26780EB18C42F7D1089C85
:100D00004FF0000A042C28BF04242E1DEC626C64F2
:100D1000304685F843A0C5F848A0FFF75BFAC4F158
:100D2000050405F11800FFF755FA4A463946C5F89B
:100D30004CA0AC612D6185F850A06D624046FFF774
:100D4000ABFA2860FFF7CEFA434A444F13680133E9
:100D500013603B68002B4ED0DFF82481D8F80030B8
:100D6000002B3FD0E86ADFF81C91DFF81CC1DFF8E8
:100D70001CE1DCF80040DEF800200123834000EB9A
:100D800080001343314609EB80000134CEF8003077
:100D9000CCF80040FFF722FAFFF7C4FAD8F8003089
:100DA0007BB13A68EB6AD26A9A420AD22C4B4FF076
:100DB00080521A60BFF34F8FBFF36F8F2846BDE894
:100DC000F0872846BDE8F08740F25521254802F01B
:100DD000BFFF25B940F25621224802F0B9FF00209A
:100DE000BDE8F0873B68E86ADB6ADFF898908342E9
:100DF00098BF3D60B9E73D601368012B05D0E86AF4
:100E0000DFF88090DFF87880AFE7DFF878904C4625
:100E100009F1640820461434FFF7D0F94445F9D1AC
:100E2000DFF86C80104C4046FFF7C8F92046FFF70A
:100E3000C5F90E48FFF7C2F90D48FFF7BFF90D4895
:100E4000FFF7BCF90C4A0D4BC2F80080E86A1C6041
:100E5000DFF82C8089E700BF90010020740100209A
:100E600004ED00E0AC40000894010020780100206F
:100E700050010020A8010020C4000020E400002050
:100E8000C8000020EC0000208C010020BC010020E4
:100E9000D000002030B589B0002407AA06A905A813
:100EA0000594069402F042FF05A807C82346029065
:100EB000019100940C490D48FFF702FF90B14FF0EB
:100EC000A00383F31188BFF36F8FBFF34F8F0848E0
:100ED000084A094B4FF0FF350121056011601C6085
:100EE000FFF77CFA09B030BDC0400008811200084D
:100EF00068010020C800002070010020024A136829
:100F000001331360704700BFCC000020014B18680C
:100F1000704700BF700100202DE9F04F4D4B83B0AA
:100F20001B68002B40F084804B4B1D6801351D6011
:100F3000002D5CD1494F3B681B68002B40F083803B
:100F4000474B39681868474A38601960136801339D
:100F500013603B681B68002B47D1434B1A46019333
:100F60004FF0FF331360019B1B689D4245D33B4FFD
:100F7000DFF80891DFF808813C4E00242CE0374B65
:100F80001B68DB68D3F80CB0DBF804200BF1040A13
:100F9000954255D35046FFF747F9DBF828200BF16F
:100FA00018000AB1FFF740F9DBF82C003268012382
:100FB00003FA00FE00EB80004EEA0202514609EB04
:100FC00080003260FFF70AF9D8F80010DBF82C2017
:100FD000CB6A9A4228BF01243B681B68002BCED104
:100FE000019A4FF0FF3313600CE0FFF7D7FD1E4B63
:100FF0000193019B1B689D42B9D2DFF88090DFF816
:1010000080800024D8F80030194ADB6A126803EBAC
:10101000830359F82330022B28BF01246AB1154BF2
:101020001B68002B18BF0124204603B0BDE8F08FD9
:101030000F4A002413680133136002F087FEEEE7C5
:10104000019B1A60DEE740F6D9110B4802F080FEE2
:1010500076E700BFCC00002070010020C400002013
:10106000E40000206C01002068010020BC01002089
:10107000E8000020C0010020AC400008EC00002087
:10108000740100202DE9F84F394C2368002B65D0FE
:10109000FFF728F92368013B23602468002C57D10F
:1010A000344B1B68002B53D0DFF8E8A0DFF8E89042
:1010B000D346314FDFF8E4801FE0DBF80C30DC680A
:1010C000251D04F11800FFF7AFF82846FFF7ACF82C
:1010D000E06A3B6806FA00F200EB80001343294601
:1010E00008EB80003B60FFF779F8244BE26A1B684D
:1010F000DB6A9A4228BFC9F80060DAF8003001269E
:10110000002BDAD13CB11E4B1B681B6863BB1D4B27
:101110004FF0FF321A601C4E346844B10125FFF7CE
:10112000FBFE08B1C9F80050013CF8D13460D9F891
:1011300000306BB1154B4FF080521A60BFF34F8FE8
:10114000BFF36F8F0124FFF7EDF82046BDE8F88F5D
:101150000024FFF7E7F82046BDE8F88F4FF4FD6163
:101160000B4802F0F5FD93E7FFF718FDD3E700BF4A
:10117000CC00002090010020BC0100207401002060
:10118000C400002068010020E800002004ED00E019
:10119000AC40000878010020C0010020EC000020D5
:1011A00070B50C460546002836D07CB31D4E33681A
:1011B00033BB33681C4A0133336010682B68984294
:1011C00004EB03010ED28B420ED82960FFF75AFFC1
:1011D000A8B9164B4FF080521A60BFF34F8FBFF380
:1011E0006F8F70BD8B4201D88842EED2081A2960F9
:1011F0000021FFF7DFFCFFF745FF0028E9D070BDB5
:1012000040F27B410A4802F0A3FDD2E740F27A4166
:10121000074802F09DFDC9E740F27941044802F019
:1012200097FDC2E7CC0000207001002004ED00E033
:10123000AC40000838B570B10E4D04462B689BB920
:101240002B682046013300212B60FFF7B3FCFFF72A
:1012500019FF00B138BD084B4FF080521A60BFF340
:101260004F8FBFF36F8F38BD40F2CF41034802F07C
:101270006FFDE5E7CC00002004ED00E0AC40000885
:101280001C4E1D4D2DE98848B246A8461B4CDFF880
:1012900074B0DFF8749006E0236837680133236088
:1012A000FFF7F0FE8FB92B68002BF5D1D9F800308D
:1012B000134A012B06D94FF080531360BFF34F8FB1
:1012C000BFF36F8F02F040FDEDE7FFF70BF8DAF8A0
:1012D0000C30D8680430FEF7A7FFDBF80030013B84
:1012E000CBF80030D8F80030013BC8F80030FFF7E9
:1012F00019F8D8E75001002064010020CC0000203C
:1013000004ED00E090010020EC000020044B1B687D
:101310000BB9FFF797BC034B01221A60704700BF5F
:10132000CC000020C001002038B50D46044658B15D
:10133000084B204619681831FEF75CFF2846BDE8C7
:1013400038400121FFF736BC40F60631024802F072
:10135000FFFCEDE774010020AC400008F8B5C3685D
:10136000DC6854B304F118052846FEF75DFF164B00
:101370001B68EBB9271D154E3846FEF755FFE36A8B
:101380003568012212489A4003EB83032A43394609
:1013900000EB83003260FEF721FF0E4BE26A1B6810
:1013A000DB6A9A4283BF0C4B012018600020F8BD15
:1013B00029460A48FEF712FFEFE740F66131084878
:1013C00002F0C6FCCEE700BFCC000020BC0100202C
:1013D000EC00002074010020C001002078010020F2
:1013E000AC40000810B5044630B1064A064B1268FE
:1013F0001B6884E80C0010BD40F6C131034802F0C0
:10140000A7FCF2E76C01002070010020AC4000084E
:10141000F8B50D46044618B36DB3FEF763FF2B68AD
:1014200018485A1C016821D0174E27683268974225
:10143000626801D091420ED28F1ABB420BD9366836
:101440005B1A016813442B60002526606160FEF77B
:1014500069FF2846F8BD0125FEF764FF2846F8BD60
:1014600040F6CB31094802F073FCD5E70025FEF7C2
:1014700059FF2846F8BD40F6CC31044802F068FC1C
:10148000CBE700BF700100206C010020AC400008D9
:10149000014B01221A607047C0010020014B1868FF
:1014A000704700BF74010020002843D02DE9F041AF
:1014B000224CC36A2268D26A934212D28269002AFD
:1014C00004DB2268D26AC2F1050282611C4D03EB83
:1014D0008303426905EB83039A4204D02368DB6AE5
:1014E000C362BDE8F08100F1040807464046FEF7FC
:1014F0009BFE00BBFB6A134E03EB830255F82220D0
:1015000032B93268012101FA03F322EA030333609E
:1015100023683268DB6A01249C4003EB8300FB6292
:1015200044EA02033360414605EB8000BDE8F04128
:10153000FEF754BE7047034EEAE700BF7401002077
:10154000EC000020BC010020002849D0F8B5254B54
:1015500004461B68984204D040F6C761224802F056
:10156000F7FBA36CEBB1E16A626C013B9142A364AF
:1015700000D00BB10020F8BD271D3846FEF754FE01
:10158000B0B9E36A194803EB830250F82220184EE1
:1015900082B93268012101FA03F322EA03033360BE
:1015A00008E040F6C961104802F0D2FBA36CDAE70C
:1015B0000E480F4E636C3268012505FA03FCC3F137
:1015C000050EE36203EB83034CEA020200EB8300A7
:1015D0003946C4F818E03260FEF700FE2846F8BD30
:1015E0000020704774010020AC400008EC0000208F
:1015F000BC010020044B1A681AB119688A6C0132C8
:101600008A641868704700BF7401002070B5184CD8
:1016100006460D46FEF766FE2368DB6C23B9236899
:10162000012183F85010B5B9FEF77CFEFEF75AFE93
:1016300023680F4ADD6C1DB113684EB96A1EDA6467
:101640002368002283F85020FEF76CFE284670BD08
:101650000022DA64F4E72846FFF7ACFA054B4FF0B6
:1016600080521A60BFF34F8FBFF36F8FDCE700BF6C
:101670007401002004ED00E0F8B50F4615461E4643
:10168000044600284FD0FEF72DFE0EB1E36C336008
:1016900094F850106A1E0223CDB284F85030032A09
:1016A00006D8DFE802F03A0C0402022D39D0E764D4
:1016B000012D0AD00124FEF735FE2046F8BDE36C6B
:1016C000012D03F10103E364F4D1271D194E3846BF
:1016D000FEF7AAFDE36A326817489D4003EB8303D7
:1016E000154300EB830039463560FEF777FDA36AAA
:1016F00023B141F23511114802F02AFB104BE26A86
:101700001B68DB6A9A42D5D90E4B4FF080521A60A3
:10171000BFF34F8FBFF36F8FCCE7E36C1F43E764DA
:10172000C6E70024C7E741F2FD01044802F010FBC0
:10173000A9E700BFBC010020EC000020AC4000087D
:101740007401002004ED00E02DE9F0410E4604464E
:1017500000284ED0FEF78EFEEFF311854FF0A00368
:1017600083F31188BFF36F8FBFF34F8F022394F879
:10177000502084F85030E36C012A03F10103E36444
:1017800003D085F31188BDE8F081A36A23B141F24B
:1017900009211D4802F0DCFA1C4B1B688BB104F1D7
:1017A00018011B48FEF71AFD1A4BE26A1B68DB6A38
:1017B0009A42E6D91EB30123336085F31188BDE850
:1017C000F08104F104084046FEF72EFDDFF850E0FA
:1017D000E36ADEF8007001220F489A4003EB8303AE
:1017E0003A43414600EB8300CEF80020FEF7F6FCBA
:1017F000DAE741F2E311044802F0AAFAAAE7074B3C
:1018000001221A60BDE700BFAC400008CC000020F8
:101810007801002074010020EC000020C0010020AD
:10182000BC010020B0F5C06F10B504460DD020F407
:101830008073B3F5806F08D020F48063B3F5407FE8
:1018400003D06321044802F083FA44F0BF60034BE5
:1018500040F40030D86010BDC840000800ED00E042
:1018600038B5C3780446012B03D97521204802F00E
:101870006FFA63780F2B36D8A3780F2B2ED8E37826
:101880005BB9237801215A091A4803F01F0320325B
:1018900001FA03F340F8223038BD174BA278D9681B
:1018A0006078C9430F23C1F30221C1F10405CB4085
:1018B000A8401340227803431B0102F16042DBB2CF
:1018C00002F5614282F800332378012203F01F0001
:1018D00008495B09824041F8232038BD772104483C
:1018E00002F036FACBE77621014802F031FAC3E77D
:1018F000C840000800E100E000ED00E008B51A4B28
:10190000984219D003F58063984221D003F5A05383
:10191000984205D0BDE80840B621144802F018BA34
:1019200001214FF4004000F017FFBDE808400021FE
:101930004FF4004000F010BF01214FF4007000F0A0
:101940000BFFBDE8084000214FF4007000F004BF19
:1019500001214FF4806000F0FFFEBDE80840002147
:101960004FF4806000F0F8BE00240140D840000829
:1019700038B5364B054698420C460BD003F58063CC
:10198000984207D003F5A053984203D0DF21304896
:1019900002F0DEF9236823F4803233F4403349D176
:1019A0002379012B03D9E121294802F0D1F9637988
:1019B000012B03D9E221264802F0CAF9A36833F4C7
:1019C000C0232FD1E36833F4006303D0E42120481F
:1019D00002F0BEF9237C013B0F2B03D9E5211C4803
:1019E00002F0B6F96A68236822F47022217922F4A1
:1019F0008072134343EA01236B60A868E168A26820
:101A0000144B0A4303406179134343EA4103AB603B
:101A1000227CEB6A013AD2B223F4700343EA025308
:101A2000EB6238BDB3F5002FCCD0E321084802F0BB
:101A30008FF9C7E7B3F5802FB2D0B2F5002FAFD042
:101A4000E021034802F084F9AAE700BF0024014026
:101A5000D8400008FDF7F1FF38B5124B0446984214
:101A60000D460CD003F58063984208D003F5A053CF
:101A7000984204D04FF497710B4802F069F9012D98
:101A800009D940F22F11084802F062F9A36843F027
:101A90000103A36038BD002DF8D1A36823F0010332
:101AA000A36038BD00240140D84000080B4B10B59E
:101AB000984204460CD003F58063984208D003F5A1
:101AC000A053984204D04FF4BF71054802F040F98A
:101AD000A36843F00803A36010BD00BF00240140C9
:101AE000D840000838B5124B044698420D460CD039
:101AF00003F58063984208D003F5A053984204D0C0
:101B00004FF4E6710B4802F023F9012D09D940F298
:101B1000CD11084802F01CF9A36843F4A003A360A8
:101B200038BD002DF8D1A36823F4A003A36038BD0D
:101B300000240140D84000082DE9F04105463C480A
:101B40000E468542144698460BD03A4B9D4208D02B
:101B500003F5A0539D4204D040F25221364802F0D2
:101B6000F7F8112E5DD8671EFBB20F2B53D8B8F1D2
:101B7000070F4AD8092E1FD9A6F10A0303EB430326
:101B8000EA680721994008FA03F322EA010843EAC8
:101B90000803062CEB601DD90C2C28D90D3C04EB56
:101BA0008404EB6A1F22A24006FA04F423EA020628
:101BB0003443EC62BDE8F08106EB46012A69072355
:101BC0008B4008FA01F822EA030348EA0303062CD3
:101BD0002B61E1D807EB87076B6B1F22BA4006FA2F
:101BE00007F723EA020637436F63BDE8F081073C3D
:101BF00004EB84042B6B1F22A24006FA04F423EAB0
:101C0000020634432C63BDE8F08140F255210A48B6
:101C100002F09EF8AEE74FF41571074802F098F80D
:101C2000A5E740F25321044802F092F89BE700BF79
:101C30000024014000280140D84000080A4B10B59C
:101C4000984204460CD003F58063984208D003F50F
:101C5000A053984204D040F2C721044802F078F81B
:101C6000E06C80B210BD00BF00240140D8400008E5
:101C7000012808B50AD940F29241084802F068F8F4
:101C8000074A936843F40003936008BD0028F7D126
:101C9000034A936823F40003936008BDD84000080A
:101CA0000024014038B5124B044698420D460CD032
:101CB00003F58063984208D003F5A053984204D0FE
:101CC00040F2AF410B4802F043F8102D0AD94FF40F
:101CD0009661084802F03CF823681D4214BF0120B9
:101CE000002038BD044BEB40DB07F5D4EFE700BF25
:101CF00000240140D84000081601010038B50F4B00
:101D0000054698420C460CD003F58063984208D0F3
:101D100003F5A053984204D040F2CF41084802F0A6
:101D200017F814F0E00F00D124B94FF49A61044879
:101D300002F00EF8E4432C6038BD00BF00240140DF
:101D4000D840000808B5012000F056FDBDE8084065
:101D5000002000F051BD00BF014B186018687047AB
:101D60000030024038B5204B044698420D4626D03C
:101D70001433984223D01433984220D0143398421D
:101D80001DD0143398421AD01433984217D014330C
:101D9000984214D003F56273984210D014339842DD
:101DA0000DD0143398420AD01433984207D014331C
:101DB000984204D040F229110C4801F0C9FF012DCE
:101DC00009D94FF49571094801F0C2FF236843F027
:101DD0000103236038BD002DF8D14FF6FE73226851
:101DE0001340236038BD00BF08000240F0400008E7
:101DF000431E012B10B5044640F28E80021F1C2AA0
:101E00000AD84A4BD340D90708D5494B1B6823420F
:101E100014BF0120002010BD4028F6D0802CF4D043
:101E2000B4F5807FF1D0B4F5007FEED0B4F5806FCB
:101E3000EBD0B4F5006FE8D0B4F5805FE5D0B4F531
:101E4000005FE2D0B4F5804FDFD0B4F5004FDCD0B6
:101E5000B4F5803FD9D0B4F5003FD6D0B4F5802F8B
:101E6000D3D0B4F5002FD0D0B4F5801FCDD0B4F5C9
:101E7000001FCAD0B4F5800FC7D0B4F5000FC4D08E
:101E8000B4F1807FC1D0B4F1007FBED0B4F1806FD7
:101E9000BBD0B4F1006FB8D004F17043013B1F2BED
:101EA00040D8244A22FA03F3DA0738D4224B9C4262
:101EB00035D080339C4232D003F580739C422ED0C3
:101EC00003F500739C422AD003F580639C4226D020
:101ED000B4F1102F23D003F5C0539C421FD003F55B
:101EE00000539C421BD003F580439C4217D003F55E
:101EF00000439C4213D003F580339C420FD003F57E
:101F000000339C420BD003F580239C4207D040F263
:101F100059210A4801F01CFFE3007FF576AF084B1A
:101F20001B6874E7074B9C42C0D1F8E71110001002
:101F3000000002408B80008080000010F04000080C
:101F4000000402404000001010F0704F10B504462D
:101F50000DD00B4B034023B140F2AF21094801F0F3
:101F6000F7FEE3004CBF084B084B5C6010BD002837
:101F7000F7D140F2AF21034801F0EAFEF1E700BFDC
:101F80000000F0EFF04000080004024000000240B2
:101F90005E4B2DE9F041984205460C461BD003F5F7
:101FA0008063984217D003F58063984213D003F5FD
:101FB000806398420FD003F5806398420BD003F5FD
:101FC0008063984207D003F58063984203D0B22122
:101FD0004F4801F0BDFEE07810F0FB0F4ED02828EE
:101FE0004CD048284AD000F0F303102B7BD0B3210B
:101FF000474801F0ADFE23881BB9B421444801F0E5
:10200000A7FEE37803F00F06DB067BD5A078431E1E
:10201000022B71D82288304312F0FF0F36D1FF2AED
:102020005DD96E68002301274FF00F0C03E00133E8
:10203000082B20D0228803F1080107FA01F131EAC8
:102040000202F4D194F803E09A00BEF1280F04BF15
:10205000696194F803E00CFA02F8BEF1480F03F14D
:10206000010326EA080600FA02F208BF2961082BDC
:1020700046EA0206DED16E60BDE8F0812288002AC1
:10208000BBD000F00F0012F0FF0FC8D02E68002365
:1020900001274FF00F0803E00133082B1BD02288E3
:1020A00007FA03F131EA0202F6D19A0094F803E04C
:1020B00008FA02FC26EA0C0600FA02F2BEF1280F2A
:1020C00046EA02060DD0BEF1480F03F1010308BF36
:1020D0002961082BE3D12E602288FF2AA1D8BDE810
:1020E000F0816961D8E7238800F00F06002B84D0C7
:1020F000A078431E022B8DD90548BB2101F028FE94
:10210000A07887E730462288BDE700BF000801407D
:10211000084100084FF6FF710222042301808270FB
:10212000C3707047F0B55C4B87B0984204460D46CB
:1021300007D003F58063984203D0C621574801F0C9
:1021400007FE2B68564A013B934200F28B80AB8816
:1021500023F002022AB10A2B03D0C8214F4801F014
:10216000F7FDEB88B3F5804F07D04BF6FF72934233
:1021700003D0C921494801F0EBFD2B89B3F5806FED
:1021800075D26B8923F480639BB2002B79D1AB8924
:10219000C3F30E03B3F5804F03D0CC213F4801F0C9
:1021A000D7FD01A8A68800F011FA039B3D4826F050
:1021B0003F06A0FB03203604800C360C87B23E435A
:1021C000A6802188384E21F001010904090C2180E4
:1021D0002A68B24223D85200B3FBF2F39BB2032B1E
:1021E00007F1010798BF04232784A38323889BB2A8
:1021F00043F0010323802388A98823F481636A893B
:1022000023F002031B040A431B0C13439BB22380DD
:10221000AA892B8913439BB2238107B0F0BD4BF6EB
:10222000FF71EE888E4231D002EB820202EB820215
:10223000B3FBF2F39BB243F48043C3F30B020AB93E
:1022400043F001034FF4967202FB00F0174AC117E6
:1022500082FB0002C1EBA212013292B243F40043AE
:102260002284C2E7C7210D4801F072FD6FE7CA2141
:102270000A4801F06DFD6B8923F480639BB2002B4B
:1022800085D0CB21054801F063FD80E702EB4201D8
:10229000B3FBF1F39BB2D0E70054004024410008A7
:1022A0007F1A060083DE1B43A0860100D34D621017
:1022B00038B5124B044698420D4608D003F58063AA
:1022C000984204D040F245110D4801F041FD012D26
:1022D0000AD94FF4A3710A4801F03AFD23889BB252
:1022E00043F00103238038BD002DF7D1238823F06C
:1022F00001031B041B0C238038BD00BF00540040A9
:102300002441000838B5124B044698420D4608D0C7
:1023100003F58063984204D040F28D110D4801F01E
:1023200017FD012D0AD94FF4C7710A4801F010FDBD
:1023300023889BB243F48073238038BD002DF7D1EE
:10234000238823F480731B041B0C238038BD00BF3B
:10235000005400402441000838B5124B044698420E
:102360000D4608D003F58063984204D040F2A511D1
:102370000D4801F0EDFC012D0AD94FF4D3710A4844
:1023800001F0E6FC23889BB243F40073238038BD40
:10239000002DF7D1238823F400731B041B0C23802A
:1023A00038BD00BF005400402441000838B5084B38
:1023B000054698420C4608D003F58063984204D045
:1023C00040F23D21034801F0C3FCA4B22C8238BD89
:1023D0000054004024410008114B70B59842054656
:1023E0000C46164608D003F58063984204D04FF49B
:1023F00017710C4801F0ACFC012E09D940F25D21A7
:10240000084801F0A5FC44F00104A4B22C8270BD80
:10241000002EF8D104F0FE04A4B22C8270BD00BFDF
:10242000005400402441000838B5274B0546984227
:102430000C4608D003F58063984204D040F20D4169
:10244000224801F085FC224A24F4803393422DD0A7
:10245000B4F1021F2AD01F4A24F00401914225D072
:1024600024F04002B2F5020F20D0B2F5901F1DD02B
:10247000194A93421AD0194A934217D0184B9C42DA
:1024800014D0102C12D0A4F54033013B012B0DD9F0
:10249000144B9C420AD0144B9C4207D0B4F5806F79
:1024A00004D040F20E41094801F052FCAB8A288B5F
:1024B0009BB243EA004324F07F401840001BB0FA6F
:1024C00080F0400938BD00BF00540040244100089E
:1024D00082000600800086004000020084000600A2
:1024E000840016008000070008000300012810B5D2
:1024F000044603D97F21034801F02AFC024B1C60EB
:1025000010BD00BF3C41000820000E4230F44043A3
:1025100010B5044604D040F20231054801F018FC21
:10252000044B586820F440402043586010BD00BF61
:102530005441000800100240012810B5044606D995
:1025400004280DD04FF450710A4801F001FC0A4BE9
:102550000022012C1A701A700AD0042C04D010BD6D
:10256000054B00221A701A70034B05221A7010BD19
:102570001C7010BD544100082010024020F400736C
:10258000B3F5807F10B5044607D0B0F5007F04D0C6
:1025900040F27231034801F0DBFB034B186A204321
:1025A000186210BD5441000800100240012810B507
:1025B000044604D94FF46071024801F0C9FB024B94
:1025C0001C6010BD544100083C04424230B4214A12
:1025D000536803F00C03042B06D0082B25D01BB145
:1025E0001D4A1346026001E01B4B0360194A1B4C55
:1025F00051681B4DC1F30311615CCB4043605168CE
:10260000C1F30221615C23FA01F181605168C1F3D9
:10261000C221615CCB40C3605268C2F38132AA5CC4
:1026200030BCB3FBF2F30361704753685168C3F3E6
:102630008343C90303F1020307D55268920304D40C
:10264000054A02FB03F30360D0E7064A02FB03F3EB
:102650000360CBE70010024000127A00080000205F
:102660000400002000093D0038B520F4AA6323F0DF
:10267000070304460D4663B958B1012D10D940F245
:102680002C410B4801F064FB0A4A53691C43546116
:1026900038BD40F22B41064801F05AFB012DEED81F
:1026A000002DF1D1034A536923EA0404546138BD73
:1026B000544100080010024038B5104B0446034056
:1026C0000D4663B958B1012D10D940F24B410C4869
:1026D00001F03EFB0B4A93691C43946138BD40F204
:1026E0004A41074801F034FB012DEED8002DF1D10D
:1026F000044A936923EA0404946138BD0200C0FFD0
:10270000544100080010024038B5104B0446034005
:102710000D4663B958B1012D10D940F26A410C48F9
:1027200001F016FB0B4AD3691C43D46138BD40F25B
:102730006941074801F00CFB012DEED8002DF1D1C5
:10274000044AD36923EA0404D46138BD0036018108
:10275000544100080010024038B5104B04460340B5
:102760000D4663B958B1012D10D940F2A5410C486E
:1027700001F0EEFA0B4AD3681C43D46038BD40F236
:10278000A441074801F0E4FA012DEED8002DF1D163
:10279000044AD36823EA0404D46038BD0200C0FFB1
:1027A000544100080010024038B5104B0446034065
:1027B0000D4663B958B1012D10D940F2C4410C48FF
:1027C00001F0C6FA0B4A13691C43146138BD40F28C
:1027D000C341074801F0BCFA012DEED8002DF1D11C
:1027E000044A136923EA0404146138BD00360181E8
:1027F0005441000800100240012810B5044604D9D5
:102800004FF49B61024801F0A3FA024B1C6010BD1B
:10281000544100084004424200F0EF03212B10B560
:1028200004461BD0392819D041281FD061280DD06B
:10283000A0F17A03052B09D940F234510F4801F079
:1028400087FA6309012B09D0022B0FD00C4B04F03F
:102850001F04586AE04000F0010010BD084B04F06E
:102860001F041868E04000F0010010BD044B04F0A4
:102870001F04186AE04000F0010010BD5441000838
:102880000010024038B520F0070304460D4663B936
:1028900058B1012D0FD95E210B4801F059FA0B4AAE
:1028A00013889BB21C43148038BD5D21064801F09B
:1028B0004FFA012DEFD8002DF1D1044A13889BB2B5
:1028C00023EA0404148038BD6C410008002800404D
:1028D000034A938B108B9BB243EA0040704700BFC2
:1028E00000280040084A010C938880B29BB243F054
:1028F0001003938011839083938823F010031B04AB
:102900001B0C9380704700BF00280040B0F5801F6B
:1029100010B5044603D3A3210A4801F019FA0A4A64
:10292000C4F303419388A4B29BB243F01003938095
:1029300011819481938823F010031B041B0C938056
:1029400010BD00BF6C41000800280040024A938877
:102950009B06FCD5704700BF0028004005490A4689
:102960008B8823F008031B041B0C8B8093881B07A8
:10297000FCD5704700280040042810B5044607D055
:10298000431E012B04D940F22711084801F0E0F959
:10299000074B98881B8882B214EA030005D002EA2C
:1029A0000400C0B2003018BF012010BD6C41000807
:1029B0000028004020F0070310B5044603B920B9F1
:1029C00040F24111044801F0C3F9044B988880B2E9
:1029D00020EA0400988010BD6C41000800280040E7
:1029E00030B5624B87B0984204460D4613D0A3F52C
:1029F000744398420FD003F5806398420BD003F5DF
:102A00008063984207D003F58063984203D0B821D1
:102A1000574801F09DF92B68564A013B934200F25A
:102A20008E80AB8823F480539BB21BB1BA215048EF
:102A300001F08EF9EB8823F440539BB2002B40F059
:102A400083802B8923F4806232B1B3F5C06F03D049
:102A5000BC21474801F07CF96B8923F00C02002A65
:102A600068D1002B66D0AB89DBB123F40072B2F5DC
:102A7000807F08D0B3F5007F05D0BE213C4801F02F
:102A800067F9AB896BB1394B9C420AD03A4B9C42F7
:102A900007D003F580639C4203D0C221344801F083
:102AA00057F9238AEA889BB223F4405313432382C5
:102AB000A289A8882B89698992B2034322F4B05273
:102AC0000B4322F00C0213439BB2A381A38AAA8971
:102AD0009BB223F440731343A38201A8FFF776FD52
:102AE00004992248039BA289844208BF0B4612F432
:102AF000004F2A6803EB830314BF5200920003EBDC
:102B00008303B3FBF2F31D4DA189A5FB03206422CF
:102B1000400900FB12330A044FEA001019D41A01CD
:102B20003232A5FB0223C3F3431303439BB2238139
:102B300007B030BDBD210E4801F00AF993E7B92175
:102B40000B4801F005F96CE7BB21094801F000F9D9
:102B500077E7D9003231A5FB0131C1F3421242EAD5
:102B600000039BB2238107B030BD00BF0038014095
:102B7000844100081FAA4400004400401F85EB5117
:102B800038B5184B044698420D4614D0A3F574434B
:102B9000984210D003F5806398420CD003F580630F
:102BA000984208D003F58063984204D04FF4B17185
:102BB0000D4801F0CDF8012D0AD940F263110A4801
:102BC00001F0C6F8A3899BB243F40053A38138BD3A
:102BD000002DF7D1A38923F400531B041B0CA38100
:102BE00038BD00BF00380140844100083F4B70B53C
:102BF000984204460D46164614D0A3F574439842F5
:102C000010D003F5806398420CD003F5806398429E
:102C100008D003F58063984204D040F2891134480B
:102C200001F096F8282D1ED040F227739D421AD04D
:102C300040F226639D4216D040F225539D4212D0A9
:102C400040F224439D420ED040F646039D420AD0F6
:102C500040F66A139D422AD0602D04D04FF4C5710E
:102C6000234801F075F8012E08D940F28B11204855
:102C700001F06EF840F66A139D421FD005F01F0266
:102C8000C5F342150123012D03FA02F308D0022DEA
:102C900029D0143425683EB925EA0303236070BDAA
:102CA0000C342568002EF7D02B43236070BD012E15
:102CB00004D940F28B110E4801F04AF80B4B9C42AC
:102CC0000CD0A3F574439C4208D003F580639C426A
:102CD00004D040F28F11064801F03AF805F01F05C4
:102CE0000123AB40D5E71034D4E700BF00380140E2
:102CF0008441000838B5134B044698420D4614D061
:102D0000A3F57443984210D003F5806398420CD029
:102D100003F58063984208D003F58063984204D09D
:102D200040F25321084801F013F8B5F5007F04D3B1
:102D30004FF41571044801F00BF8C5F30805A580A0
:102D400038BD00BF00380140844100080E4B10B56B
:102D50009842044614D0A3F57443984210D003F56A
:102D6000806398420CD003F58063984208D003F545
:102D70008063984204D04FF41971044800F0E8FFD2
:102D8000A088C0F3080010BD00380140844100084D
:102D900038B5404B044698420D4614D0A3F5744311
:102DA000984210D003F5806398420CD003F58063FD
:102DB000984208D003F58063984204D040F2C131B4
:102DC000354800F0C5FF282D36D040F227739D42CC
:102DD00032D040F226639D422ED040F225539D42D0
:102DE0002AD040F224439D4226D040F646039D421D
:102DF0004DD040F66A139D4233D0B5F5187F46D0CA
:102E000025F40073B3F5B07F04D040F2C2312248FC
:102E100000F09EFFC5F34212012A0DD005F01F00FD
:102E20000123022A03FA00F32DD0A08A80B21840B1
:102E300023889BB260B938BDA28905F01F00012329
:102E400092B2834002EA030023889BB20028F2D0AA
:102E500001222D0A02FA05F52B4214BF104600206C
:102E600038BD0C4B9C420BD00C4B9C4208D003F558
:102E700080639C4204D040F2C631074800F068FFEE
:102E80004FF48063D1E7208A80B21840DCE7C5F3B5
:102E90004212C3E70038014084410008004400406A
:102EA00038B5234B044698420D4614D0A3F574431D
:102EB000984210D003F5806398420CD003F58063EC
:102EC000984208D003F58063984204D040F20A414A
:102ED000184800F03DFF40F226639D4210D040F2BA
:102EE00025539D420CD040F646039D4208D040F643
:102EF0006A139D420CD040F20B410E4800F028FFAF
:102F00002B0A012202FA03F3DB439BB2238038BD74
:102F1000074B9C42F4D0084B9C42F1D003F58063F0
:102F20009C42EDD040F20F41024800F011FFE7E76C
:102F3000003801408441000800440040F0B50446D8
:102F400087B008200F4601211646FFF7B5FB01A800
:102F5000FFF7E0F82B4B01219C4236D04FF4800064
:102F6000FFF7D2FB4FF4406503221C2301A926483A
:102F70008DF806208DF80730ADF80450FFF708F8FB
:102F800001214FF48000FFF70FFC00214FF4800077
:102F9000FFF70AFC4BF6FF7520460121FFF788F981
:102FA00006A900234FF4804241F8107D2046ADF879
:102FB0001060ADF80E50ADF80C30ADF81230ADF831
:102FC0001420FFF7AFF807B0F0BD4FF40010FFF783
:102FD0009BFBC02503221C2301A90B488DF806206A
:102FE0008DF80730ADF80450FEF7D2FF01214FF401
:102FF0000010FFF7D9FB00214FF40010FFF7D4FBBE
:10300000C8E700BF00540040000C01403AB3002361
:103010002DE9F04116460F4604461D464FF6FF784F
:1030200082B0F95C2046FFF7C1F9CDF8048003E0D7
:103030000198431E019378B10A492046FFF7F4F93D
:103040000028F5D00135ADB2AE422B46E9D8204676
:103050000121FFF781F9012002B0BDE8F0810120D4
:10306000704700BF8400070008B54FF40010FEF75A
:10307000BFFE00B908BD4FF4E000FEF765FF002178
:103080000448FEF76FFEBDE8084001210248FFF743
:1030900063B900BF6C0002400054004008B54FF413
:1030A0000050FEF7A5FE00B908BD00210648FEF756
:1030B00059FE4FF4E040FEF747FFBDE8084001210C
:1030C0000248FFF749B900BF4400024000580040E1
:1030D00010B5012182B04FF0C050FFF715FB01245D
:1030E00003210D22002301A88DF804108DF805207E
:1030F0008DF806308DF80740FEF7B2FB2046FFF74B
:10310000F5F9FEF71FFE2046FFF716FA4120FFF7FC
:1031100083FB0028FAD04FF48070FFF72FFA0120CC
:10312000FFF744FAFFF71AFCFFF710FC01210846ED
:10313000FFF7A8FBFFF70AFC47F6FF70FFF7E6FB77
:10314000FFF704FCFFF702FC0020FFF7CBFBFFF7C3
:10315000FDFB02B010BD00BF30B51C491C4B0A7905
:103160003A24A3FB0252D208303202700A798470EA
:10317000A3FB02E5ED0805EB8505A2EB4502303225
:1031800042704A790025A3FB02E2D2083032C270B5
:103190004A794471A3FB02E4E40804EB8404A2EB43
:1031A0004402303202718A790572A3FB0242D208CE
:1031B000303282718A79A3FB0213DB0803EB8303AD
:1031C000A2EB43033033C37130BD00BFC801002000
:1031D000CDCCCCCC2DE9F04F87B0FEF75FF9514B49
:1031E000514D524CDFF85C91DFF85C81504E186015
:1031F000FFF76EFF0120002868D0FFF769FB40F25F
:10320000B55B4C4B4C49A3FB003AA1FB003EA9FB2C
:10321000003C4FEA5E1EA1FB0E31484B4FEA1A4AB2
:103220004FEADC2CA3FB0C23A6FB0A72D2090BFB92
:1032300012A2A8FB007A49091B09C1EB0111AEEBF0
:10324000810103EB43034FEADA5ACEEB0E1EA0EBEB
:103250008E00ACEBC3034FEA8A0AB2F5896F69713D
:10326000A8712B710AF2B27135D32F4B0AF2B57ADD
:10327000A3F800A040F247434FF0030C01210B4498
:10328000D31A012100201F2202E0625C01300131CB
:103290000128964638D09A4233D80C29A3EB020372
:1032A000F3D10D220133EB70AA70002101A800F0C8
:1032B000A5F90028F9D003A8FFF74EFF03A80022C4
:1032C000092100F0F9F9002000F0BEF9C821012021
:1032D000FEF79CF98FE740F26D131948A0FB0270CE
:1032E000C0EB020C00EB5C0C4FEA1C2C0E48614456
:1032F000BCF1030F018003FB0CF318BF0021BED10A
:10330000BAE7421CD2B2CDE7BCF1020F04D09E4511
:1033100006D8CEEB0303B8E702F1010E9E45F8D9BB
:103320000222BFE7C4010020C8010020A04100081C
:1033300073B06D1607452EC289888888ABAAAAAAE1
:1033400061F31967C5B3A291792D031100B500236C
:1033500083B001200193FFF70FFB60B9019B3BB1E4
:103360000B4B4FF080521A60BFF34F8FBFF36F8F3C
:1033700003B05DF804FB0120FFF71CFB054B186848
:1033800010B101A9FEF7E0F9FFF7E0FAE6E700BFA8
:1033900004ED00E0C401002038B505460120FDF72A
:1033A00049FF40F2E73405E0013C0120A4B2FDF7FB
:1033B00041FF34B129460648FFF736F80028F3D01C
:1033C00038BD01210248BDE83840FEF7C5BF00BF47
:1033D0000054004070B50646124C01212046FEF70D
:1033E00091FF1148FFF7D8FF002220467821FEF711
:1033F000F3FF0E4D0E48FFF7CFFF20460021FEF7EA
:10340000D5FF2846FFF7C8FF31462046FEF7CEFF1E
:103410002846FFF7C1FF2046BDE870400121FEF7B6
:103420009BBF00BF00540040010003008400070060
:103430008200070010B51B2234493548FFF77EFD96
:10344000344B0024AE201C70FFF7C4FF2046FFF76A
:10345000C1FF1020FFF7BEFF4020FFF7BBFF812018
:10346000FFF7B8FFCF20FFF7B5FFA120FFF7B2FFAE
:10347000C820FFF7AFFFA620FFF7ACFFA420FFF79F
:10348000A9FFA820FFF7A6FF3F20FFF7A3FFD32047
:10349000FFF7A0FF2046FFF79DFFD520FFF79AFF1B
:1034A0008020FFF797FFD920FFF794FFF120FFF767
:1034B00091FFDA20FFF78EFF1220FFF78BFFDB2052
:1034C000FFF788FF4020FFF785FF2020FFF782FFEE
:1034D0002046FFF77FFF4020FFF77CFF8D20FFF79E
:1034E00079FF1420FFF776FFA420FFF773FFAF20CA
:1034F000FFF770FFFCF7F6FE21464FF40062064826
:1035000000F0ADFDBDE81040FCF70CBF407E0500AB
:1035100000540040D00100201C020020F8B5FDF747
:10352000BDFF2C4B2C4918600120FDF7A5F92B4C51
:1035300000231A4619462060FDF716FAFFF77AFFB6
:10354000002320681A461946FDF7E4F8244F254E5B
:10355000254D06E04FF080532B60BFF34F8FBFF334
:103560006F8F4FF4FA710120FEF750F80028F1D068
:1035700021203478FFF72EFF0020FFF72BFF7F205C
:10358000FFF728FF2220FFF725FF0020FFF722FF8B
:103590000720FFF71FFF01211448FEF7B3FE144870
:1035A000FFF7FAFE002278211048FEF715FF1148B8
:1035B000FFF7F2FE40210D48FEF7F8FE07EB8424EA
:1035C0000D48FFF7E9FE21464FF480620748FFF7F8
:1035D0001DFDBFE7200A0020D40100201C0A0020A6
:1035E0001C020020D001002004ED00E00054004047
:1035F00001000300820007008400070038B50F4B6C
:103600001A68CAB100230C460546194610466422C2
:10361000FDF7AAF988B10A4BE2011B780949C3F109
:10362000010302EB8323C4F10804E4000B4480226D
:103630002C712B606A7138BD104638BD1C0A002001
:10364000D00100201C0200202DE9F041164D2B680E
:10365000F3B1DFF86080D8F80030CBB10446134EE8
:10366000FCF740FE30781249C0F101074FF4806248
:1036700001EB802001EB872100F0E6FC3770FCF7BE
:1036800051FE002328681A461946FDF743F80CB985
:10369000BDE8F0810023D8F800001946BDE8F041EC
:1036A0000222FDF7E9BF00BF1C0A0020D001002064
:1036B0001C020020200A00202DE9F04F2B4A4E1E4C
:1036C000957EDFF8ACE0063505FB06F60278F6B22B
:1036D000C6F180059EF800C005EBD575203A02EBD7
:1036E0004202C5F34705DFF88CE04FF0000906EB16
:1036F00005085600CCF101024C464B464F46DFF818
:1037000078A05FFA88F8F6B20EEB822221E09845A5
:103710000AEB040C04F1010E1DD31CF806C05FFA7D
:103720008EF4052C09F1010B82F800C00BD95FFA69
:103730008BF9494518D910F809600024203E06EBA2
:1037400046067600F6B20133DBB2802B02F10102AD
:1037500008D09D42DBD30133DBB2802B177002F11E
:103760000102F6D1BDE8F08F0024ECE7180000203C
:10377000D00100201C0200205049000810B50C4B5D
:1037800082B002A901F8010D0A2218680023FCF793
:10379000C1FF012802D0002002B010BD044602463D
:1037A00040F227710348FFF721FA204602B010BD0E
:1037B000B00A00200038014070B5002486B00094A3
:1037C000394B3A4A01212020FCF764FF384B394A33
:1037D000009401211860384B4020FCF75BFF374B09
:1037E000012118604FF48040FEF766FF012105209B
:1037F000FEF762FF012525230C2602A88DF80A405A
:103800008DF808308DF80B508DF80960FEF728F818
:1038100018204FF40072032302A98DF80B002848EA
:10382000ADF808208DF80A30FEF7B2FB4FF4806245
:10383000042302A92248ADF808208DF80B30FEF7CA
:10384000A7FB4FF4E13302A91E480293ADF80C40E8
:10385000ADF80E40ADF81040ADF81440ADF8126070
:10386000FFF7BEF840F225511648FFF719FB2A462C
:1038700040F225511348FFF7B9F9134C2A4640F29C
:1038800027711048FFF7B2F929460E48FFF778F97B
:1038900004F12005452001E014F8010FFFF76EFF49
:1038A000AC42F9D106B070BDB40A0020FC0A002079
:1038B000240A0020280A0020680A0020B00A0020FC
:1038C0000008014000380140AC41000810B582B04A
:1038D000FDF71CFB0B4C0190FFF76EFF03E032215C
:1038E00001A8FDF75DFC00231A460DF103012068D5
:1038F000FDF73AF80128F2D19DF80300FFF73EFFEB
:10390000EDE700BF240A002010B540F2255182B037
:10391000002420480194FFF73BFA88B940F2277150
:103920001C48FFF735FAF8B9019B3BB11A4B4FF031
:1039300080521A60BFF34F8FBFF36F8F02B010BD7C
:103940001448FFF703FA154A8DF803000DF103013F
:103950001068234601AAFCF7A5FF40F227710D4825
:10396000FFF716FA0028DFD00D4B01AA18680DF1F9
:103970000301FDF7BFF828B19DF803100548FFF7D4
:10398000B9F9D1E7024640F227710248FFF72EF954
:10399000CAE700BF0038014004ED00E0240A00201F
:1039A000B00A00202DE9F04F002491B002210EA8AA
:1039B000FFF724FE0028F9D0002C00F01281DDF87A
:1039C00038B00023D9460D93CDF814B00D9BDAB270
:1039D000002B00F03A81531E052ADBB200F03A8139
:1039E0000132D2B2049209EBC3131A464FF0000A17
:1039F000574606930D9B0499DB0109EBC1110C920C
:103A00009AB209910B9209EB030B0791FBB2002FBD
:103A100000F01D81A3F102087E2B5FFA88F800F008
:103A20000D81BB1C9C460A930B9B0C9A3B449BB29A
:103A30004FEAD31E4FEACE1E03F07F030EEB030ABC
:103A4000CE449E441346434401930BEB0803029378
:103A5000134663440393079BCA44434400260893D8
:103A6000019B1BF80C401A78029B1878069B02EB0E
:103A70000022D95D059BDD5D039B01EB05251B78CD
:103A8000049903EB0423002940F0888019F808000A
:103A900019F8071019F80C4080098909A40902EBEC
:103AA000004005EB014103EB04444FF44C6303FA7F
:103AB00006F24FF4407303FA06F50A404FF47C63B4
:103AC000B340920900EA030005EA010503EA040392
:103AD00000F085800C21002400E062B112F0010F9B
:103AE00018BF013401F1FF3118BFE4B211F0FF013A
:103AF0004FEA9202F1D182096FD00C21002000E040
:103B000062B112F0010F18BF013001F1FF3118BF8F
:103B1000C0B211F0FF014FEA9202F1D120449B099B
:103B2000C0B258D00C22002400E063B113F0010FA2
:103B300018BF013402F1FF3218BFE4B212F0FF02E5
:103B40004FEA9303F1D12044C0B2032834D00228B5
:103B50000ED06DB10323B340DB439EF800205BB26F
:103B60001A408EF800209AF8012013408AF801309C
:103B70000236082E7FF474AF0A9F802F7FF446AF81
:103B80000D9B059A01338032062B0D9305927FF42D
:103B90001DAF0120FFF758FD012407E708990878B9
:103BA000099902EB0040079AC95D12F80C4005EB39
:103BB000014103EB044478E7002DD9D19EF8003091
:103BC000B040C0B203438EF800309AF80130184379
:103BD0008AF80100CCE71C46B5E710469EE714467C
:103BE00089E70E9C3F2500F0B5F8002100F54C1048
:103BF00000F54C50C0F3062303FB01F39BB2DA0936
:103C0000D20103F07E0304EB020E03261EF80370BC
:103C10008E40F6B21A44374322440EF803705378AC
:103C200002311E4308295670E0D1013D15F0FF0511
:103C3000D9D10120FFF708FD0124B7E6BB1C4FF0E6
:103C40007C084FF0000C0A93EEE60523C8E64FF01F
:103C50007E08E6E6002204230492C4E600B54FF491
:103C6000407085B0FDF7DEFD1F49204A0023029118
:103C7000019200934FF480721D491E48FDF720F811
:103C800000282ED01C491D4A012302910192009365
:103C9000402200231A491B48FDF712F8F8B11A49CF
:103CA0001A4A0223029101920093802200231849AC
:103CB0001848FDF705F880B11749184A002302910A
:103CC00001920093802216491648FCF7F9FF10B1C3
:103CD000FDF7E0F8FEE700BEFAE700BEECE700BE45
:103CE000DDE700BECEE700BF200F0020740F0020EC
:103CF00050520008CD380008780B0020CC0B002073
:103D000060520008D5310008CC0E0020CC0C0020F9
:103D10006C5200081D35000874130020C8130020E1
:103D20007C520008A539000800BE704730B4044D2D
:103D3000044C802305600C60136030BC704700BFEA
:103D4000240B00201C0B0020FEE700BF704700BFC3
:103D500000BE704730B54FF4007087B00121FEF708
:103D6000ABFC0020FEF7D2FB2120FEF755FD00281A
:103D7000FAD02748FDF7C2FD01244FF46023002547
:103D800001A9234803938DF8144001958DF808503C
:103D90008DF809500495FDF7EBFD2046FDF768FF0F
:103DA00021461B48FDF758FE1948FDF77FFE2246C5
:103DB0002B4610211648FDF7BFFE21464020FEF796
:103DC00053FC082401211248FDF78CFE0221104803
:103DD000FDF768FF0028F9D00D48FDF72FFFFDF72C
:103DE000BBFF02210A48FDF789FF611E11F0FF04A5
:103DF000E8D121460648FDF72FFE21464FF400701A
:103E0000FEF75AFC0348FDF7A7FF07B030BD00BF1F
:103E100000240140E555DABA0649074A074B9A42A1
:103E2000BEBF51F8040B42F8040BF8E70448804782
:103E3000044800479C52000800000020A000002019
:103E4000D13E0008490100081F49204A002301E033
:103E500041F8043B9142FBD3FFF700FFFEE7FEE78A
:103E6000FEE7FEE7FEE7FEE7FEE7FEE7FEE7FEE72A
:103E7000FEE7FEE7FEE7FEE7FEE7FEE7FEE7FEE71A
:103E8000FEE7FEE7FEE7FEE7FEE7FEE7FEE7FEE70A
:103E9000FEE7FEE7FEE7FEE7FEE7FEE7FEE7FEE7FA
:103EA000FEE7FEE7FEE7FEE7FEE7FEE7FEE7FEE7EA
:103EB000FEE7FEE7FEE7FEE7FEE7FEE7FEE7FEE7DA
:103EC000FEE7FEE7FEE7FEE7A0000020C8150020A1
:103ED00030B43C4B3C49186882B040F00100186097
:103EE0005D6800202940596019684FF41F0421F0D3
:103EF000847121F48031196019681A4621F48021F7
:103F00001960596821F4FE0159609C60009001908D
:103F1000196841F48031196003E0009BB3F5A06F8C
:103F200009D0136803F400330193009B013300931D
:103F3000019B002BF1D0234B1B6813F4003318BFF7
:103F400001230193019B012B06D0204B4FF000620F
:103F50009A6002B030BC70471D4A1A4B106819466F
:103F600040F010001060106820F00300106010682E
:103F700040F0020010605A685A605A685A605A68E5
:103F800042F480625A605A6822F47C125A605A687D
:103F900042F4E8125A601A6842F080721A600B68A4
:103FA000084A9B01FBD51146536823F00303536075
:103FB000536843F0020353604B6803F00C03082B73
:103FC000FAD1C2E7001002400000FFF800ED00E067
:103FD0000020024008B5074B044613B10021AFF39F
:103FE0000080054B1868836A03B19847204600F0AB
:103FF0003EF800BF000000008C5200080E4B70B568
:104000001E460E4C0025E41AA410A54204D056F812
:10401000253098470135F8E700F02AF8084B094C9D
:104020001E46E41AA4100025A54204D056F82530F7
:1040300098470135F8E770BD9800002098000020EF
:10404000980000209C00002010B5431E0A449142B5
:1040500004D011F8014B03F8014FF8E710BD0346F7
:104060000244934202D003F8011BFAE77047FEE7CF
:10407000F8B500BFF8BC08BC9E467047F8B500BF55
:10408000F8BC08BC9E4670474672656552544F5353
:104090005C706F72742E63004672656552544F53A4
:1040A0005C71756575652E6300000000467265657C
:1040B00052544F535C7461736B732E6300000000A5
:1040C00049444C450000000053504C5C7372635CE3
:1040D0006D6973632E63000053504C5C7372635CB4
:1040E00073746D3332663130785F6164632E6300C0
:1040F00053504C5C7372635C73746D333266313051
:10410000785F646D612E630053504C5C7372635C26
:1041100073746D3332663130785F6770696F2E6308
:104120000000000053504C5C7372635C73746D3319
:1041300032663130785F6932632E630053504C5CD5
:104140007372635C73746D3332663130785F70778D
:10415000722E630053504C5C7372635C73746D33E6
:1041600032663130785F7263632E630053504C5C6B
:104170007372635C73746D3332663130785F72745E
:10418000632E630053504C5C7372635C73746D33C5
:1041900032663130785F75736172742E630000008F
:1041A0001F1C1F1E1F1E1F1F1E1F1E1F4556414C7A
:1041B00020424F4152443A2053544D33324631301D
:1041C00033433854362037324D487A0D0A00000008
:1041D00000000000000000000000000000000000DF
:1041E000000000000000000000000000FFCCFFCC39
:1041F000000000000000000000000000F000F000DF
:1042000000000000F000F000000000000CC00CC036
:10421000FFFCFFFC0CC00CC0FFFCFFFC0CC00CC082
:104220000C601E703F303330FFFCFFFC333033F046
:1042300039E018C06000F00CF03C60F003C00F00E3
:104240003C18F03CC03C00183CF07FF8C31CC78C05
:10425000CFCCDCEC7878303000FC00CC00000000E3
:1042600000004400EC00F8007000000000000000B6
:10427000000000000FC03FF078786018C00CC00C40
:104280000000000000000000C00CC00C601878782E
:104290003FF00FC0000000000C600EE007C003807C
:1042A0003FF83FF8038007C00EE00C6003000300F6
:1042B000030003003FF03FF003000300030003008E
:1042C000004400EC00F80070000000000000000056
:1042D00000000000030003000300030003000300CC
:1042E00003000300030003000018003C003C00181A
:1042F0000000000000000000000000000000000CB2
:10430000003C00F003C00F003C00F000C0000000C3
:104310003FF07FF8E0FCC1CCC38CC70CCE0CFC1C7A
:104320007FF83FF000000000300C700CFFFCFFFC39
:10433000000C000C00000000300C701CE03CC07C45
:10434000C0ECC1CCC38CE70C7E0C3C0C3030703818
:10435000E01CC00CC00CC30CC30CE31C7FF83CF089
:1043600003C007C00EC01CC038C070C0FFFCFFFCFB
:1043700000C000C0FC30FC38CC1CCC0CCC0CCC0CED
:10438000CC0CCE1CC7F8C3F03FF07FF8E31CC30C85
:10439000C30CC30CC30CE39C71F830F0C000C00028
:1043A000C000C000C3FCC7FCCE00DC00F800F00079
:1043B0003CF07FF8E79CC30CC30CC30CC30CE79C18
:1043C0007FF83CF03C007E00E70CC30CC31CC338F4
:1043D000C370E7E07FC03F8000000000000018606D
:1043E0003CF03CF0186000000000000000000000FD
:1043F000000018443CEC3CF818700000000000007D
:104400000000030007800FC01CE038707038E01C0B
:10441000C00C00000CC00CC00CC00CC00CC00CC008
:104420000CC00CC00CC00CC00000C00CE01C7038EC
:1044300038701CE00FC007800300000030007000DF
:10444000E000C000C1ECC3ECC300E6007E003C000D
:1044500030F071F8E39CC30CC3FCC3FCC00CE01C3F
:104460007FF83FF03FFC7FFCE0C0C0C0C0C0C0C0D0
:10447000C0C0E0C07FFC3FFCFFFCFFFCC30CC30CD2
:10448000C30CC30CC30CE79C7FF83CF03FF07FF8F3
:10449000E01CC00CC00CC00CC00CE01C70383030EC
:1044A000FFFCFFFCC00CC00CC00CC00CC00CE01C1E
:1044B0007FF83FF0FFFCFFFCC30CC30CC30CC30C24
:1044C000C30CC30CC00CC00CFFFCFFFCC300C3003A
:1044D000C300C300C300C300C000C0003FF07FF8AA
:1044E000E01CC00CC00CC30CC30CE31C73F833F00D
:1044F000FFFCFFFC030003000300030003000300B4
:10450000FFFCFFFC00000000C00CC00CFFFCFFFC27
:10451000C00CC00C0000000000300038C01CC00CF3
:10452000C00CC01CFFF8FFF0C000C000FFFCFFFC87
:10453000078007800FC01CE038707038E01CC00C8A
:10454000FFFCFFFC000C000C000C000C000C000C2D
:10455000000C000CFFFCFFFC700038001F001F0067
:1045600038007000FFFCFFFCFFFCFFFC1C000E008D
:104570000700038001C000E0FFFCFFFC3FF07FF874
:10458000E01CC00CC00CC00CC00CE01C7FF83FF05D
:10459000FFFCFFFCC300C300C300C300C300E7006F
:1045A0007E003C003FF07FF8E01CC00CC0CCC0ECAB
:1045B000C07CE0387FFC3FECFFFCFFFCC300C38005
:1045C000C380C3C0C3C0E7707E3C3C1C3C187E1C4B
:1045D000E70CC30CC30CC30CC30CC39CE1F860F024
:1045E000C000C000C000C000FFFCFFFCC000C00055
:1045F000C000C000FFF0FFF8001C000C000C000C15
:10460000000C001CFFF8FFF0FFC0FFE00070003856
:10461000001C001C00380070FFE0FFC0FFF0FFF836
:10462000001C003C00F800F8003C001CFFF8FFF004
:10463000F03CF87C1CE00FC0078007800FC01CE036
:10464000F87CF03CFC00FE000700038001FC01FC4C
:1046500003800700FE00FC00C03CC07CC0ECC1CC65
:10466000C38CC70CCE0CDC0CF80CF00C0000000066
:10467000FFFCFFFCC00CC00CC00C000000000000E0
:10468000300030000C000C000300030000C000C02C
:104690000030003000000000C00CC00CC00CFFFC5B
:1046A000FFFC0000000000000C001C00380070003F
:1046B000E000E000700038001C000C00000C000C52
:1046C000000C000C000C000C000C000C000C000C8A
:1046D00000000000C000E00070003800180000007A
:1046E00000000000003006780EFC0CCC0CCC0CCC8A
:1046F0000CCC0ECC07FC03F8FFFCFFFC030C030CF6
:10470000030C030C030C039C01F800F003F007F802
:104710000E1C0C0C0C0C0C0C0C0C0E1C0738033073
:1047200000F001F8039C030C030C030C030C030CB6
:10473000FFFCFFFC03F007F80EDC0CCC0CCC0CCC1F
:104740000CCC0EDC07D80390000003003FFC7FFC7C
:10475000E300E30070003000000000000318079C35
:104760000FCC0CCC0CCC0CCC0CCC0CDC0FF807F028
:10477000FFFCFFFC0300030003000300038001FCB7
:1047800000FC000000000000000000001BFC1BFCFF
:104790000000000000000000000000300038001C95
:1047A000000C000C001CCFF8CFF000000000FFFC54
:1047B000FFFC00E001E003F007380E1C0C0C0000C9
:1047C00000000000C00CC00CFFFCFFFC000C000C43
:1047D000000000000FFC0FFC0E00070003C003C028
:1047E00007000E000FFC0FFC0FFC0FFC030007007E
:1047F0000E000C000C000E0007FC03FC03F007F891
:104800000E1C0C0C0C0C0C0C0C0C0E1C07F803F002
:104810000FFC0FFC0CC00CC00CC00CC00CC00FC0B7
:1048200007800300030007800FC00CC00CC00CC041
:104830000CC00CC00FFC0FFC0FFC0FFC038007002A
:104840000E000C000C000E00070003000318079C6C
:104850000FCC0CCC0CCC0CCC0CCC0CFC0E78063059
:1048600000000C000C00FFF0FFF80C1C0C1C0C38B6
:104870000C3000000FF00FF8001C000C000C000CB6
:10488000000C001C0FF80FF00FC00FE00070003894
:10489000001C001C003800700FE00FC00FF00FF874
:1048A000001C001C00F800F8001C001C0FF80FF0A2
:1048B0000C0C0E1C073803F001E001E003F0073890
:1048C0000E1C0C0C0C000E00070C039C01F801F0F0
:1048D000038007000E000C000C0C0C1C0C3C0C7C24
:1048E0000CEC0DCC0F8C0F0C0E0C0C0C000003000C
:1048F00007803FF07CF8E01CC00CC00CC00C00002E
:10490000030C030C3FFC7FFCE30CC30CC00CE00C5D
:10491000700C300C0000C00CC00CC00CE01C7CF80B
:104920003FF0078003000000C000C000C000C000CE
:10493000C000C000C000C000C000C000FFFCFFFC01
:10494000FFFCFFFCFFFCFFFCFFFCFFFCFFFCFFFC8F
:104950000000000000000000005F000000000300F5
:104960000300227F22227F2200242A6B2A120023A6
:1049700013086462003A45453A280000000201002D
:1049800000003E4100000000413E0000002A1C1CC7
:104990002A000008083E08080000804000000008C7
:1049A0000808080000000040000000201008040271
:1049B000003E5149453E0000427F40000062515197
:1049C000514E00214145453B001816117F1000272C
:1049D00045454539003E4949493200016111090701
:1049E00000364949493600264949493E000000122F
:1049F00000000000201200000008142241000014F2
:104A00001414141400412214080000060151090670
:104A1000003E414D4D2E007816111678007F494911
:104A20004936003E41414122007F4141413E007FE5
:104A300049494941007F09090901003E414151327C
:104A4000007F0808087F0000417F4100003040419E
:104A5000413F007F08081463007F40404060007FB2
:104A60000418047F007F0408107F003E4141413E4E
:104A7000007F09090906003E4161215E007F0909A6
:104A800019660026494949320001017F0101003FB2
:104A90004040403F000718601807001F6018601F63
:104AA000006314081463000304780403006151498F
:104AB000454300007F410000000204081020000070
:104AC000417F0000000000000000404040404040A6
:104AD000000000010200002054545478007E484831
:104AE000483000384444442800304848487E003864
:104AF0005454541800107C120204000C52523C0210
:104B0000007E0808087000000074000000408080EB
:104B10007400007E1010106C0000027E0000007C0B
:104B200004780478007C0404047800384444443851
:104B300000FC242424180018242424FC007C0804ED
:104B4000040800485454542000083E484000003CEB
:104B50004040403C001C2040201C003C4030403C79
:104B6000004428102844001C20A0A07C0044645469
:104B70004C440008364100000000007F00000000A7
:104B800041360800020101020201007F7F7F7F7F22
:104B900000000000000000000000183C3C3C181819
:104BA000180018186363632200000000000000363C
:104BB000367F3636367F36363E6361603E030343CA
:104BC000633E0000006163060C183363001C363638
:104BD0001C3B6E66663B3030306000000000000019
:104BE0000C18183030303018180C180C0C0606064B
:104BF000060C0C18000042663CFF3C6642000000B8
:104C0000181818FF18181800000000000000000015
:104C100018180000000000FF000000000000000065
:104C20000000000018180103070E1C3870E0C08057
:104C30003E6363636B6B6363633E0C1C3C0C0C0C48
:104C40000C0C0C3F3E6303060C183061637F3E631F
:104C500003031E030303633E060E1E3666667F06CD
:104C6000060F7F6060607E030363733E1C306060EC
:104C70007E636363633E7F630306060C0C1818189B
:104C80003E6363633E636363633E3E636363633FAC
:104C90000303063C0000001818000000181800006C
:104CA000001818000000181800060C1830603018A2
:104CB0000C06000000007E00007E0000006030183E
:104CC0000C060C1830603E6363060C0C0C000C0CD8
:104CD0003E63636F6B6B6E60603E081C366363639C
:104CE0007F6363637E3333333E333333337E1E332C
:104CF000616060606061331E7C363333333333333D
:104D0000367C7F3331343C343031337F7F33313440
:104D10003C34303030781E336160606F6363371D20
:104D2000636363637F63636363633C1818181818D5
:104D30001818183C0F06060606060666663C73330E
:104D400036363C36363333737830303030303031AD
:104D5000337F63777F6B6363636363636363737BD7
:104D60007F6F676363631C36636363636363361CCF
:104D70007E3333333E30303030783E636363636B71
:104D80006F3E06077E3333333E36363333733E632E
:104D900063301C060363633EFFDB9918181818186C
:104DA000183C6363636363636363633E636363636A
:104DB000636363361C0863636363636B6B7F3636C0
:104DC000C3C3663C18183C66C3C3C3C3C3663C1860
:104DD0001818183C7F6343060C183061637F3C3021
:104DE000303030303030303C80C0E070381C0E073E
:104DF00003013C0C0C0C0C0C0C0C0C3C081C36631A
:104E0000000000000000000000000000FF000000A3
:104E1000000000000000000000000000003C46060A
:104E20003E66663B7030303C36333333336E0000C1
:104E3000003E63606060633E0E06061E3666666670
:104E4000663B0000003E63637E60633E1C3632308A
:104E50007C30303030780000003B66663E06663CB1
:104E6000703030363B33333333730C0C001C0C0C76
:104E70000C0C0C1E0606000E06060666663C70301C
:104E8000303333363C3633731C0C0C0C0C0C0C0CCE
:104E90000C1E0000006E7F6B6B6B6B6B0000006E76
:104EA0003333333333330000003E63636363633E65
:104EB0000000006E33333E3030780000003B666601
:104EC0003E06060F0000006E3B33303030780000A5
:104ED000003E63380E03633E0818187E1818181831
:104EE0001B0E0000006666666666663B0000006397
:104EF0006336361C1C080000006363636B6B7F36EF
:104F000000000063361C1C1C36630000636363638F
:104F10003F03063C0000007F660C1830637F0E18CC
:104F2000181870181818180E1818181818001818CB
:104F30001818701818180E18181818703B6E000002
:104F400000000000000070D8D870000000000000D1
:104F50000000000000000000183C3C181800180079
:104F6000363600000000000036367F367F363600C9
:104F70000C3E031E301F0C00006333180C666300E8
:104F80001C361C6E3B336E0006060300000000005A
:104F9000180C0606060C1800060C1818180C06004B
:104FA00000663CFF3C660000000C0C3F0C0C00004F
:104FB00000000000000C0C060000003F0000000094
:104FC00000000000000C0C006030180C060301000B
:104FD0003E63737B6F673E000C0E0C0C0C0C3F00A5
:104FE0001E33301C06333F001E33301C30331E008E
:104FF000383C36337F3078003F031F3030331E009B
:105000001C06031F33331E003F3330180C0C0C00FA
:105010001E33331E33331E001E33333E30180E0052
:10502000000C0C00000C0C00000C0C00000C0C061A
:10503000180C0603060C180000003F00003F00009B
:10504000060C1830180C06001E3330180C000C002B
:105050003E637B7B7B031E000C1E33333F333300E8
:105060003F66663E66663F003C66030303663C009F
:105070001F36666666361F007F46161E16467F0080
:105080007F46161E16060F003C66030373667C00FF
:105090003333333F333333001E0C0C0C0C0C1E0027
:1050A0007830303033331E006766361E3666670050
:1050B0000F06060646667F0063777F7F6B6363009B
:1050C00063676F7B736363001C36636363361C0026
:1050D0003F66663E06060F001E3333333B1E380024
:1050E0003F66663E366667001E33070E38331E0085
:1050F0003F2D0C0C0C0C1E003333333333333F0085
:1051000033333333331E0C006363636B7F77630089
:105110006363361C1C3663003333331E0C0C1E00D5
:105120007F6331184C667F001E06060606061E00C9
:1051300003060C18306040001E18181818181E00BE
:10514000081C36630000000000000000000000FFA3
:105150000C0C18000000000000001E303E336E00F2
:105160000706063E66663B0000001E3303331E0042
:105170003830303E33336E0000001E333F031E00D4
:105180001C36060F06060F0000006E33333E301F3C
:105190000706366E666667000C000E0C0C0C1E00CF
:1051A000300030303033331E070666361E36670057
:1051B0000E0C0C0C0C0C1E000000337F7F6B630088
:1051C00000001F333333330000001E3333331E001F
:1051D00000003B66663E060F00006E33333E3078BB
:1051E00000003B6E66060F0000003E031E301F00ED
:1051F000080C3E0C0C2C18000000333333336E00C7
:1052000000003333331E0C000000636B7F7F3600D9
:10521000000063361C36630000003333333E301F1A
:1052200000003F190C263F00380C0C070C0C38000E
:105230001818180018181800070C0C380C0C070068
:105240006E3B0000000000000000000000000000B5
:10525000447276554152545F5461736B00000000F4
:105260004472765254435F5461736B0044727644C7
:105270006973706C61795F5461736B00474F4C5F69
:105280005461736B000000004300000038000020F0
:04529000000000001A
:08529400B4AEFF7F0100000031
:10529C00AAAAAAAA0204060800000000010203043C
:1052AC0001020304060708090A0E0200D041000897
:1052BC000A080100904B000808080100504F000834
:1052CC000608000050490008000000000000000023
:1052DC0000000000000000000000000000000000C2
:1052EC0000000000000000008852000800000000D0
:1052FC0000000000000000000000000000000000A2
:10530C000000000000000000000000000000000091
:10531C000000000000000000000000000000000081
:10532C00000000000000000011010008ED00000862
:0400000508000000EF
:00000001FF
