:020000040800F2
:10000000002800200D5C0008535C0008555C0008C7
:10001000575C0008595C00085B5C000800000000A9
:10002000000000000000000000000000B103000814
:100030005F5C0008000000005105000899050008F9
:10004000675C0008695C00086B5C0008D54C000820
:100050006F5C0008715C0008735C0008755C000848
:10006000775C0008795C00087B5C00087D5C000818
:100070007F5C0008815C000801490008855C00087D
:10008000C9480008895C00088B5C00088D5C00088A
:100090008F5C0008915C0008935C0008955C000888
:1000A000975C0008995C00089B5C00089D5C000858
:1000B0009F5C0008A15C0008A35C0008A55C000828
:1000C000A75C0008A95C0008AB5C0008AD5C0008F8
:1000D000AF5C000855540008B35C0008B55C00082C
:1000E000B75C0008B95C0008BB5C000810B5054CA3
:1000F000237833B9044B13B10448AFF300800123D4
:10010000237010BDA0000020000000000471000852
:10011000084B10B51BB108490848AFF300800848E8
:10012000036803B910BD074B002BFBD0BDE810409E
:10013000184700BF00000000A40000200471000860
:10014000A000002000000000154B002B08BF134B3F
:100150009D46A3F5803A00218B460F461348144A6A
:10016000121A05F0AEFE0F4B002B00D098470E4B35
:10017000002B00D098470020002104000D000D48FE
:10018000002802D00C48AFF3008005F069FE200083
:10019000290005F003FC05F04FFE00BF0000080039
:1001A000002800200000000000000000A000002047
:1001B000CC150020000000000000000080B483B0D7
:1001C00000AF78607B6803F108027B685A607B6847
:1001D0004FF0FF329A607B6803F108027B68DA60B7
:1001E0007B6803F108027B681A617B6800221A6051
:1001F00000BF0C37BD4680BC704700BF80B483B0E1
:1002000000AF78607B6800221A6100BF0C37BD46E2
:1002100080BC704780B485B000AF786039607B687F
:100220005B68FB603B68FA685A60FB689A683B68E9
:100230009A60FB689B683A685A60FB683A689A6003
:100240003B687A681A617B681B685A1C7B681A6075
:1002500000BF1437BD4680BC704700BF80B485B076
:1002600000AF786039603B681B68BB60BB68B3F166
:10027000FF3F03D17B681B69FB600CE07B680833A0
:10028000FB6002E0FB685B68FB60FB685B681A6808
:10029000BB689A42F6D9FB685A683B685A603B686B
:1002A0005B683A689A603B68FA689A60FB683A68EB
:1002B0005A603B687A681A617B681B685A1C7B68C5
:1002C0001A6000BF1437BD4680BC704780B485B04B
:1002D00000AF78607B681B69FB607B685B687A684D
:1002E00092689A607B689B687A6852685A60FB687B
:1002F0005A687B689A4203D17B689A68FB685A60A7
:100300007B6800221A61FB681B685A1EFB681A6032
:10031000FB681B6818461437BD4680BC704700BF99
:1003200080B485B000AFF860B9607A60FB68043BC8
:10033000FB60FB684FF080721A60FB68043BFB6057
:10034000BB6823F00102FB681A60FB68043BFB609A
:10035000084AFB681A60FB68143BFB607A68FB681C
:100360001A60FB68203BFB60FB6818461437BD46EB
:1003700080BC70477903000880B582B000AF094B9C
:100380001B68B3F1FF3F03D0F221074805F0B6FB2D
:100390004FF0A00383F31188BFF36F8FBFF34F8F2C
:1003A0007B60FEE700000020EC5E0008000000001B
:1003B000074B19680868B0E8F00F80F30988BFF3AD
:1003C0006F8F4FF0000080F311884EF00D0E7047D4
:1003D000C400002000BF00BF06480068006880F32A
:1003E000088862B661B6BFF34F8FBFF36F8F00DF2F
:1003F00000BF00BF08ED00E080B584B000AF284B1F
:10040000FB60FB681B78DBB2BB60FB68FF221A70E5
:10041000FB681B78DBB2FB71FB79DBB223F05F0377
:10042000DAB2204B1A70204B07221A6009E01E4BEB
:100430001B68013B1C4A1360FB79DBB25B00DBB23B
:10044000FB71FB79DBB25BB2002BF0DB164B1B6858
:100450001B02154A1360144B1B6803F4E063124A35
:100460001360BB68DAB2FB681A70104A0F4B1B6846
:1004700043F47F0313600D4A0C4B1B6843F07F432A
:10048000136000F0A9F80A4B00221A60FFF7A4FFDE
:10049000FFF772FF002318461037BD4680BD00BF2E
:1004A00000E400E0BC000020C000002020ED00E0DF
:1004B0000000002080B582B000AF4FF0A00383F3AE
:1004C0001188BFF36F8FBFF34F8F7B600B4B1B689F
:1004D00001330A4A1360094B1B68012B09D1084BF1
:1004E0001B68DBB2002B04D040F27F11054805F0F9
:1004F00005FB00BF0837BD4680BD00BF00000020DF
:1005000004ED00E0EC5E000880B582B000AF0D4B5A
:100510001B68002B04D14FF4C3710B4805F0EEFAB1
:10052000084B1B68013B074A1360064B1B68002BF6
:1005300004D100237B607B6883F3118800BF0837F8
:10054000BD4680BD00000020EC5E000800000000F9
:10055000EFF30980BFF36F8F0D4B1A6820E9F00F9E
:1005600010602DE908404FF0A00080F3118801F0E1
:10057000F3F84FF0000080F31188BDE808401968D7
:100580000868B0E8F00F80F30988BFF36F8F7047F9
:10059000C400002000BF00BF80B582B000AF4FF0A4
:1005A000A00383F31188BFF36F8FBFF34F8F3B60BE
:1005B00001F010F80346002B03D0064B4FF0805299
:1005C0001A6000237B607B6883F3118800BF0837C3
:1005D000BD4680BD04ED00E080B400AF044B054A89
:1005E0001A60054B07221A6000BFBD4680BC7047E9
:1005F00014E000E03F19010010E000E080B582B097
:1006000000AFEFF305837B607B680F2B0ED9104A98
:100610007B6813441B78FB700E4B1B78FA789A4268
:1006200004D240F29E210C4805F068FA0B4B1B687F
:1006300003F4E0620A4B1B689A4204D940F2AE21EF
:10064000054805F05BFA00BF0837BD4680BD00BF16
:10065000F0E300E0BC000020EC5E00080CED00E0E0
:10066000C000002080B584B000AF786039607B683E
:10067000FB60FB68002B04D140F21B11294805F0F8
:100680003DFAFFF717FFFB681A68FB68DB6BF96838
:10069000096C01FB03F31A44FB685A60FB680022F3
:1006A0009A63FB681A68FB689A60FB681A68FB68C3
:1006B000DB6B013BF968096C01FB03F31A44FB682F
:1006C000DA60FB68FF2283F84420FB68FF2283F88E
:1006D00045203B68002B14D1FB681B69002B1AD006
:1006E000FB681033184601F0BDF80346002B12D00A
:1006F0000D4B4FF080521A60BFF34F8FBFF36F8FD7
:1007000009E0FB6810331846FFF758FDFB682433F7
:100710001846FFF753FDFFF7F7FE01231846103781
:10072000BD4680BDFC5E000804ED00E080B588B0E9
:1007300002AFF860B9607A603B60FB68002B04D1BF
:100740004FF4A971244805F0D9F93B68002B04D176
:100750004FF4AB71204805F0D1F97B68002B02D033
:10076000BB68002B01D0012300E00023002B04D143
:100770004FF4AD71184805F0C1F97B68002B02D128
:10078000BB68002B01D1012300E00023002B04D122
:1007900040F25B11104805F0B1F948233B613B6919
:1007A000482B04D040F263110B4805F0A7F93B68D1
:1007B0007B617B69002B09D097F820207B6900932F
:1007C00013467A68B968F86800F008F87B6918463B
:1007D0001837BD4680BD00BFFC5E000880B584B000
:1007E00000AFF860B9607A60FB70BB68002B03D182
:1007F000BB69BA691A6002E0BB697A681A60BB69B2
:10080000FA68DA63BB69BA681A640121B869FFF74C
:1008100029FF00BF1037BD4680BD00BF80B582B044
:1008200000AF78607B68002B0ED07B6800225A6096
:100830007B6800221A607B680022DA6000230022B5
:100840000021786800F020F800BF0837BD4680BD61
:1008500080B588B002AF03463960FB7101237B612C
:1008600000233B61FB7900933B680022396978697A
:10087000FFF75CFFF860F868FFF7D0FFFB681846E9
:100880001837BD4680BD00BF80B58AB000AFF860A4
:10089000B9607A603B6000237B62FB683B623B6A25
:1008A000002B04D140F2D921604805F027F9BB683C
:1008B000002B03D13B6A1B6C002B01D1012300E00C
:1008C0000023002B04D140F2DA21584805F016F934
:1008D0003B68022B03D13B6ADB6B012B01D1012367
:1008E00000E00023002B04D140F2DB214F4805F04B
:1008F00005F9FFF7DFFD3B6A9A6B3B6ADB6B9A42B7
:1009000002D33B68022B29D13A68B968386A00F0F3
:100910007FFAF8613B6A5B6A002B10D03B6A243394
:10092000184600F09FFF0346002B13D0404B4FF0BA
:1009300080521A60BFF34F8FBFF36F8F0AE0FB69DD
:10094000002B07D03A4B4FF080521A60BFF34F8F05
:10095000BFF36F8FFFF7D8FD012363E07B68002BA7
:1009600003D1FFF7D1FD00235CE07B6A002B06D1A9
:1009700007F11403184600F0D3FF01237B62FFF751
:10098000C3FD00F073FDFFF795FD3B6A93F844301B
:100990005BB2B3F1FF3F03D13B6A002283F84420EE
:1009A0003B6A93F845305BB2B3F1FF3F03D13B6A3A
:1009B000002283F84520FFF7A7FD3A1D07F1140335
:1009C0001146184600F0CAFF0346002B24D1386AAE
:1009D00000F016FB0346002B18D03B6A10337A68F0
:1009E0001146184600F01EFF386A00F0A1FA00F028
:1009F0004BFD0346002B7FF47CAF0D4B4FF0805234
:100A00001A60BFF34F8FBFF36F8F72E7386A00F041
:100A10008FFA00F039FD6CE7386A00F089FA00F0CF
:100A200033FD002318462837BD4680BDFC5E000814
:100A300004ED00E080B58CB000AFF860B9607A607A
:100A40003B60FB68BB62BB6A002B04D140F29F3164
:100A50003A4805F053F8BB68002B03D1BB6A1B6C06
:100A6000002B01D1012300E00023002B04D14FF41F
:100A70006871324805F042F83B68022B03D1BB6A2B
:100A8000DB6B012B01D1012300E00023002B04D1FB
:100A900040F2A131294805F031F8FFF7AFFDEFF33F
:100AA00011824FF0A00383F31188BFF36F8FBFF360
:100AB0004F8FBA617B61BB693B62BB6A9A6BBB6A51
:100AC000DB6B9A4202D33B68022B2AD1BB6A93F8B4
:100AD0004530FB773A68B968B86A00F099F997F938
:100AE0001F30B3F1FF3F12D1BB6A5B6A002B15D0F8
:100AF000BB6A2433184600F0B5FE0346002B0DD028
:100B00007B68002B0AD07B6801221A6006E0FB7F1D
:100B10000133DBB25AB2BB6A83F845200123FB6282
:100B200001E00023FB623B6A7B627B6A83F31188EE
:100B3000FB6A18463037BD4680BD00BFFC5E00082A
:100B400080B58AB000AFF860B9607A603B6000237E
:100B50007B62FB683B623B6A002B04D140F2DC41C4
:100B60006F4804F0CBFFBB68002B03D13B6A1B6CC2
:100B7000002B01D1012300E00023002B04D140F21F
:100B8000DD41674804F0BAFFFFF794FC3B6A9B6BBA
:100B9000FB61FB69002B46D03B6ADB68BB61B9682F
:100BA000386A00F09FF93B68002B21D1FB695A1E7F
:100BB0003B6A9A633B6A1B68002B04D101F0F4F88E
:100BC00002463B6A5A603B6A1B69002B27D03B6A8E
:100BD0001033184600F046FE0346002B1FD0514B41
:100BE0004FF080521A60BFF34F8FBFF36F8F16E044
:100BF0003B6ABA69DA603B6A5B6A002B0FD03B6ADA
:100C00002433184600F02EFE0346002B07D0454B38
:100C10004FF080521A60BFF34F8FBFF36F8FFFF713
:100C200073FC012377E07B68002B03D1FFF76CFC9A
:100C3000002370E07B6A002B06D107F110031846F1
:100C400000F06EFE01237B62FFF75EFC00F00EFCFD
:100C5000FFF730FC3B6A93F844305BB2B3F1FF3FDF
:100C600003D13B6A002283F844203B6A93F8453065
:100C70005BB2B3F1FF3F03D13B6A002283F845200A
:100C8000FFF742FC3A1D07F110031146184600F029
:100C900065FE0346002B31D1386A00F09BF903460C
:100CA000002B25D03B6A1B68002B08D1FFF702FC04
:100CB0003B6A5B68184600F085FFFFF725FC3B6A3E
:100CC00024337A681146184600F0ACFD386A00F00B
:100CD0002FF900F0D9FB0346002B7FF455AF114BE1
:100CE0004FF080521A60BFF34F8FBFF36F8F4BE707
:100CF000386A00F01DF900F0C7FB45E7386A00F0DC
:100D000017F900F0C1FB386A00F064F90346002BC4
:100D10003FF43AAF002318462837BD4680BD00BFD8
:100D2000FC5E000804ED00E080B58CB000AFF86018
:100D3000B9607A60FB68BB62BB6A002B04D14FF4D8
:100D4000B461324804F0DAFEBB68002B03D1BB6A01
:100D50001B6C002B01D1012300E00023002B04D1E8
:100D600040F2A151294804F0C9FEFFF747FCEFF318
:100D700011824FF0A00383F31188BFF36F8FBFF38D
:100D80004F8F7A613B617B693B62BB6A9B6BFB6106
:100D9000FB69002B2DD0BB6A93F84430FB76B96811
:100DA000B86A00F09FF8FB695A1EBB6A9A6397F90C
:100DB0001B30B3F1FF3F12D1BB6A1B69002B15D06A
:100DC000BB6A1033184600F04DFD0346002B0DD0D2
:100DD0007B68002B0AD07B6801221A6006E0FB7E4C
:100DE0000133DBB25AB2BB6A83F844200123FB62B1
:100DF00001E00023FB623B6A7B627B6A83F311881C
:100E0000FB6A18463037BD4680BD00BFFC5E000857
:100E100080B586B000AFF860B9607A6000237B616E
:100E2000FB689B6B3B61FB681B6C002B0DD1FB6867
:100E30001B68002B4DD1FB685B68184600F038FF3B
:100E40007861FB6800225A6043E07B68002B19D16F
:100E5000FB689868FB681B6C1A46B96805F026F8B1
:100E6000FB689A68FB681B6C1A44FB689A60FB6815
:100E70009A68FB685B689A422BD3FB681A68FB6828
:100E80009A6026E0FB68D868FB681B6C1A46B96854
:100E900005F00CF8FB68DA68FB681B6C5B421A44CF
:100EA000FB68DA60FB68DA68FB681B689A4207D265
:100EB000FB685A68FB681B6C5B421A44FB68DA608B
:100EC0007B68022B05D13B69002B02D03B69013BBB
:100ED0003B613B695A1CFB689A637B69184618376B
:100EE000BD4680BD80B582B000AF786039607B6858
:100EF0001B6C002B18D07B68DA687B681B6C1A446B
:100F00007B68DA607B68DA687B685B689A4203D347
:100F10007B681A687B68DA607B68D9687B681B6CC1
:100F20001A46386804F0C2FF00BF0837BD4680BDCE
:100F300080B584B000AF7860FFF7BCFA7B6893F8A7
:100F40004530FB7311E07B685B6A002B12D07B6835
:100F50002433184600F086FC0346002B01D000F035
:100F600053FDFB7B013BDBB2FB7397F90F30002B8A
:100F7000E9DC00E000BF7B68FF2283F84520FFF733
:100F8000C3FAFFF797FA7B6893F84430BB7311E01C
:100F90007B681B69002B12D07B681033184600F069
:100FA00061FC0346002B01D000F02EFDBB7B013B12
:100FB000DBB2BB7397F90E30002BE9DC00E000BF19
:100FC0007B68FF2283F84420FFF79EFA00BF1037AA
:100FD000BD4680BD80B584B000AF7860FFF76AFA87
:100FE0007B689B6B002B02D10123FB6001E0002397
:100FF000FB60FFF789FAFB6818461037BD4680BDD5
:1010000080B584B000AF7860FFF754FA7B689A6BC4
:101010007B68DB6B9A4202D10123FB6001E0002375
:10102000FB60FFF771FAFB6818461037BD4680BDBC
:1010300080B58AB004AFF860B9607A603B607B6AC3
:10104000002B04D140F25521174804F057FDBB6A2C
:10105000002B04D140F25621134804F04FFDBB6A27
:10106000002B1AD07B6A002B17D0BB6A7B617B698F
:101070007A6A1A63002303937B69029307F11003D2
:1010800001933B6A00933B687A68B968F86800F09E
:101090000DF8786900F086F801E000233B613B69B8
:1010A00018461837BD4680BD105F000880B586B071
:1010B00000AFF860B9607A603B60BB6A1A6B7B680E
:1010C00003F18043013B9B0013443B613B6923F0E8
:1010D00007033B613B6903F00703002B04D040F298
:1010E0002B312F4804F00AFD00237B6112E0BA681F
:1010F0007B6913441978BA6A7B69134434330A460E
:101100001A70BA687B6913441B78002B06D07B6980
:1011100001337B617B690F2BE9D900E000BFBB6A1B
:10112000002283F843203B6A042B01D904233B624D
:10113000BB6A3A6ADA62BB6A3A6A5A64BB6A0022DC
:101140009A64BB6A04331846FFF758F8BB6A183331
:101150001846FFF753F8BB6ABA6A1A613B6AC3F1D3
:101160000502BB6A9A61BB6ABA6A5A62BB6A00220C
:10117000DA64BB6A002283F850203A68F96838695B
:10118000FFF7CEF80246BB6A1A607B6A002B02D0DA
:101190007B6ABA6A1A6000BF1837BD4680BD00BFBF
:1011A000105F000880B582B000AF7860FFF782F969
:1011B0002A4B1B680133294A1360294B1B68002BFB
:1011C00009D1274A7B681360244B1B68012B10D17F
:1011D00000F040FC0DE0234B1B68002B09D1204B95
:1011E0001B68DA6A7B68DB6A9A4202D81C4A7B6811
:1011F00013601D4B1B6801331B4A13607B68DB6A5D
:1012000001229A40194B1B681343184A13607B68EC
:10121000DA6A13469B0013449B00154A1A447B6804
:10122000043319461046FEF7F5FFFFF76DF90D4B35
:101230001B68002B0ED00A4B1B68DA6A7B68DB6ADE
:101240009A4207D20B4B4FF080521A60BFF34F8F78
:10125000BFF36F8F00BF0837BD4680BD9C010020E3
:10126000C4000020A8010020B8010020A401002033
:10127000C800002004ED00E080B586B000AF7860C3
:10128000396000237B617B68002B04D140F27941F7
:101290002C4804F033FC3B68002B04D140F27A4127
:1012A000284804F02BFC284B1B68002B04D040F28C
:1012B0007B41244804F022FC00F0D8F8234B1B6843
:1012C0003B617B681A683B681344FB607B681A6863
:1012D0003B699A420BD97B681A68FB689A4211D91C
:1012E000FA683B699A420DD901237B610AE07B6869
:1012F0001A68FB689A4203D8FA683B699A4201D996
:1013000001237B617B68FA681A607B69002B06D039
:10131000FA683B69D31A0021184600F0C3FE00F0BA
:10132000B3F8B860BB68002B07D1094B4FF080526F
:101330001A60BFF34F8FBFF36F8F00BF1837BD46E2
:1013400080BD00BF105F0008C4010020A001002084
:1013500004ED00E080B584B000AF78600023FB604E
:101360007B68002B11D0104B1B68002B04D040F27F
:10137000CF410E4804F0C2FB00F078F800217868F5
:1013800000F090FE00F080F8F860FB68002B07D1B9
:10139000074B4FF080521A60BFF34F8FBFF36F8F30
:1013A00000BF1037BD4680BDC4010020105F00089B
:1013B00004ED00E080B58AB004AF0023FB60002399
:1013C000BB603A1D07F1080107F10C03184604F051
:1013D00073FB7968BB68FA6802920193002300935B
:1013E00000230A461A491B48FFF722FE02461A4B01
:1013F0001A60194B1B68002B02D001237B6101E0AE
:1014000000237B617B69012B15D14FF0A00383F38F
:101410001188BFF36F8FBFF34F8F3B610F4B4FF0BE
:10142000FF321A600E4B01221A600E4B00221A6026
:10143000FEF7E2FF08E07B69B3F1FF3F04D140F221
:101440008471094804F05AFB00BF1837BD4680BDBF
:10145000245F0008211A0008C0010020BC01002000
:10146000A8010020A0010020105F000880B400AF98
:10147000044B1B680133034A136000BFBD4680BCA8
:10148000704700BFC401002080B584B000AF0023C6
:10149000FB600023BB603E4B1B68002B04D14FF464
:1014A000FD613C4804F02AFBFFF704F8384B1B6849
:1014B000013B374A1360364B1B68002B61D1364B1A
:1014C0001B68002B5DD02EE0344BDB68DB68FB60D3
:1014D000FB6818331846FEF7F9FEFB68043318461C
:1014E000FEF7F4FEFB68DB6A01229A402C4B1B6876
:1014F00013432B4A1360FB68DA6A13469B001344BC
:101500009B00284A1A44FB68043319461046FEF72C
:1015100081FEFB68DA6A244B1B68DB6A9A4202D3BD
:10152000224B01221A601D4B1B68002BCCD1FB689B
:10153000002B01D000F014FB1D4B1B687B607B6807
:10154000002B10D000F046F80346002B02D0174BBA
:1015500001221A607B68013B7B607B68002BF1D124
:10156000134B00221A60114B1B68002B09D001237A
:10157000BB60104B4FF080521A60BFF34F8FBFF328
:101580006F8FFEF7C1FFBB6818461037BD4680BDA0
:10159000C4010020105F00089C0100205C010020B5
:1015A000A4010020C8000020C4000020B0010020D9
:1015B000AC01002004ED00E080B483B000AF044B28
:1015C0001B687B607B6818460C37BD4680BC704743
:1015D000A001002080B586B000AF00237B61524B94
:1015E0001B68002B40F08D80504B1B6801333B6122
:1015F0004E4A3B6913603B69002B1AD14C4B1B6868
:101600001B68002B04D040F6D9114A4804F076FA42
:10161000474B1B68FB60484B1B68454A1360464AB2
:10162000FB681360454B1B680133444A136000F0AC
:1016300097FA434B1B683A699A424DD33C4B1B685F
:101640001B68002B01D1012300E00023002B04D0F4
:101650003B4B4FF0FF321A603EE0354B1B68DB68B6
:10166000DB68BB60BB685B687B603A697B689A42F9
:1016700003D2334A7B6813602EE0BB6804331846FC
:10168000FEF724FEBB689B6A002B04D0BB681833AE
:101690001846FEF71BFEBB68DB6A01229A40294B05
:1016A0001B681343274A1360BB68DA6A13469B0022
:1016B00013449B00244A1A44BB680433194610465D
:1016C000FEF7A8FDBB68DA6A204B1B68DB6A9A420A
:1016D000B4D301237B61B1E71C4B1B68DA6A1A495A
:1016E00013469B0013449B000B441B68012B01D93C
:1016F00001237B61164B1B68002B09D104F0F8F91C
:1017000006E0134B1B680133114A136004F0F0F933
:10171000104B1B68002B01D001237B617B691846AD
:101720001837BD4680BD00BFC4010020A0010020C5
:1017300054010020105F000858010020B40100206F
:10174000BC010020A4010020C8000020C40000202B
:10175000AC010020B001002080B584B000AF2B4B5D
:101760001B68002B03D02A4B01221A604AE0284B49
:1017700000221A60274B1B681A68264B1B681B6BDC
:101780009A4208D8234B1A68224B1B6834331946F7
:10179000104604F081F9204B1B687B607B68B3FA2C
:1017A00083F3FB70FB78C3F11F03FB601B49FA68EE
:1017B00013469B0013449B000B441B68002B04D171
:1017C00040F6F621164804F099F9FA6813469B0092
:1017D00013449B00114A1344BB60BB685B685A68A2
:1017E000BB685A60BB685A68BB6808339A4204D128
:1017F000BB685B685A68BB685A60BB685B68DB683B
:10180000044A136000BF1037BD4680BDC4010020EC
:10181000B0010020C4000020A4010020C800002066
:10182000105F000880B582B000AF786039607B68D7
:10183000002B04D140F60631084804F05FF9084B4C
:101840001B68183319467868FEF708FD01213868CF
:1018500000F028FC00BF0837BD4680BD105F0008BF
:10186000C400002080B584B000AF78607B68DB687E
:10187000DB68BB60BB68002B04D140F661312148B6
:1018800004F03CF9BB6818331846FEF71FFD1E4BE9
:101890001B68002B1CD1BB6804331846FEF716FDED
:1018A000BB68DB6A01229A40184B1B681343174A36
:1018B0001360BB68DA6A13469B0013449B00144A0A
:1018C0001A44BB68043319461046FEF7A3FC05E032
:1018D000BB68183319460F48FEF79CFCBB68DA6AF0
:1018E0000D4B1B68DB6A9A4205D90123FB600B4B49
:1018F00001221A6001E00023FB60FB6818461037E4
:10190000BD4680BD105F0008C4010020A401002076
:10191000C80000205C010020C4000020B0010020AD
:1019200080B582B000AF78607B68002B04D140F6B0
:10193000C131074804F0E2F8064B1A687B681A6068
:10194000054B1A687B685A6000BF0837BD4680BDEA
:10195000105F0008B4010020A001002080B584B011
:1019600000AF786039607B68002B04D140F6CB3142
:10197000224804F0C3F83B68002B04D140F6CC3178
:101980001E4804F0BBF8FEF795FD1D4B1B68BB60BD
:101990003B681B68B3F1FF3F02D10023FB6026E0E8
:1019A0007B681A68174B1B689A4207D07B685A6895
:1019B000BB689A4202D80123FB6018E07B685B6831
:1019C000BA68D21A3B681B689A420ED23B681A6802
:1019D0007B685968BB68CB1A1A443B681A60786800
:1019E000FFF79EFF0023FB6001E00123FB60FEF791
:1019F0008BFDFB6818461037BD4680BD105F0008A0
:101A0000A0010020B401002080B400AF034B0122EC
:101A10001A6000BFBD4680BC704700BFB001002007
:101A200080B582B000AF786000F054F8074B1B68B7
:101A3000012B07D9064B4FF080521A60BFF34F8F2E
:101A4000BFF36F8F04F050F8EEE700BFC80000202E
:101A500004ED00E080B582B000AF00237B600CE0B5
:101A60007A6813469B0013449B00124A134418469D
:101A7000FEF7A4FB7B6801337B607B68042BEFD906
:101A80000D48FEF79BFB0D48FEF798FB0C48FEF750
:101A900095FB0C48FEF792FB0B48FEF78FFB0B4BB8
:101AA000054A1A600A4B054A1A6000BF0837BD464E
:101AB00080BD00BFC80000202C0100204001002094
:101AC0005C010020700100208801002054010020EA
:101AD0005801002080B582B000AF28E0FFF7C6FCB7
:101AE000174B1B68002B0CBF01230023DBB27B606C
:101AF000FFF7CAFC7B68002B19D1FEF7DBFC104B0B
:101B0000DB68DB683B603B6804331846FEF7DEFBAE
:101B10000C4B1B68013B0B4A13600B4B1B68013BD2
:101B2000094A1360FEF7F0FC386800F00FF8064B26
:101B30001B68002BD2D100BF0837BD4680BD00BF57
:101B4000700100209C0100208401002080B483B03B
:101B500000AF786000BF0C37BD4680BC704700BF47
:101B600080B483B000AF0E4B1B681B68002B01D103
:101B7000012300E00023002B04D00A4B4FF0FF327A
:101B80001A6008E0064B1B68DB68DB687B607B68DB
:101B90005B68044A136000BF0C37BD4680BC7047C9
:101BA00054010020BC01002080B483B000AF044B7E
:101BB0001B687B607B6818460C37BD4680BC70474D
:101BC000C400002080B584B000AF78607B68FB6003
:101BD0007B68002B62D0FB68DA6A324B1B68DB6AD9
:101BE0009A425BD2FB689B69002B06DB2D4B1B687E
:101BF000DB6AC3F10502FB689A61FB685969FB68FF
:101C0000DA6A13469B0013449B00274A1344994207
:101C100001D1012300E00023002B3AD0FB680433FC
:101C20001846FEF753FB0346002B15D1FB68DA6A12
:101C30001D4913469B0013449B000B441B68002B5B
:101C40000AD1FB68DB6A012202FA03F3DA43174B7D
:101C50001B681340154A1360124B1B68DA6AFB6855
:101C6000DA62FB68DB6A01229A40104B1B6813435F
:101C70000E4A1360FB68DA6A13469B0013449B000C
:101C8000094A1A44FB68043319461046FEF7C2FAA3
:101C900004E0044B1B68DA6AFB68DA6200BF1037A5
:101CA000BD4680BDC4000020C8000020A401002063
:101CB00080B584B000AF78607B68BB600023FB60B8
:101CC0007B68002B62D0344B1B68BA689A4204D000
:101CD00040F6C761314803F011FFBB689B6C002BD5
:101CE00004D140F6C9612D4803F008FFBB689B6C26
:101CF0005A1EBB689A64BB68DA6ABB685B6C9A421E
:101D000044D0BB689B6C002B40D1BB6804331846A1
:101D1000FEF7DCFA0346002B15D1BB68DA6A2049CE
:101D200013469B0013449B000B441B68002B0AD1F5
:101D3000BB68DB6A012202FA03F3DA43194B1B6822
:101D40001340184A1360BB685A6CBB68DA62BB6800
:101D5000DB6AC3F10502BB689A61BB68DB6A0122DA
:101D60009A40104B1B6813430E4A1360BB68DA6A33
:101D700013469B0013449B00094A1A44BB68043372
:101D800019461046FEF746FA0123FB60FB68184629
:101D90001037BD4680BD00BFC4000020105F0008A2
:101DA000C8000020A401002080B400AF074B1B68CE
:101DB000002B04D0054B1B689A6C01329A64034BCC
:101DC0001B681846BD4680BC704700BFC400002099
:101DD00080B584B000AF78603960FEF76BFB1E4BB6
:101DE0001B68DB6C002B13D11B4B1B68012283F893
:101DF00050203B68002B0BD00121386800F052F9CD
:101E0000164B4FF080521A60BFF34F8FBFF36F8FA6
:101E1000FEF77AFBFEF74EFB0F4B1B68DB6CFB609B
:101E2000FB68002B0CD07B68002B04D00A4B1B688E
:101E30000022DA6404E0084B1B68FA68013ADA64AD
:101E4000054B1B68002283F85020FEF75DFBFB6802
:101E500018461037BD4680BDC400002004ED00E0E8
:101E600080B588B000AFF860B9603B601346FB7185
:101E70000123FB61FB68002B04D141F2FD014048C6
:101E800003F03CFEFB68BB61FEF714FB3B68002BD4
:101E900003D0BB69DA6C3B681A60BB6993F85030B9
:101EA000FB75BB69022283F85020FB79042B28D8EC
:101EB00001A252F823F000BF031F0008CD1E000846
:101EC000DB1E0008E71E0008EF1E0008BB69DA6C85
:101ED000BB681A43BB69DA6413E0BB69DB6C5A1C4C
:101EE000BB69DA640DE0BB69BA68DA6409E0FB7DBE
:101EF000022B03D0BB69BA68DA6401E00023FB61FE
:101F000000BFFB7D012B33D1BB6904331846FEF7BC
:101F1000DDF9BB69DB6A01229A401A4B1B68134347
:101F2000184A1360BB69DA6A13469B0013449B008E
:101F3000154A1A44BB69043319461046FEF76AF97C
:101F4000BB699B6A002B04D041F235110C4803F0A9
:101F5000D5FDBB69DA6A0D4B1B68DB6A9A4207D96B
:101F60000B4B4FF080521A60BFF34F8FBFF36F8F50
:101F7000FEF7CAFAFB6918462037BD4680BD00BF90
:101F8000105F0008A4010020C8000020C400002049
:101F900004ED00E080B588B000AF786039607B6800
:101FA000002B04D141F2E311374803F0A7FDFEF7FF
:101FB00025FB7B68FB61EFF311824FF0A00383F3F5
:101FC0001188BFF36F8FBFF34F8FFA60BB60FB6860
:101FD0007B61FB6993F85030FB74FB69022283F844
:101FE0005020FB69DB6C5A1CFB69DA64FB7C012B1B
:101FF00040D1FB699B6A002B04D041F209212248A1
:1020000003F07CFD214B1B68002B1CD1FB690433C2
:102010001846FEF75BF9FB69DB6A01229A401C4B0C
:102020001B6813431A4A1360FB69DA6A13469B0064
:1020300013449B00174A1A44FB690433194610469F
:10204000FEF7E8F805E0FB69183319461248FEF779
:10205000E1F8FB69DA6A114B1B68DB6A9A4209D91D
:102060003B68002B03D03B6801221A6002E00C4B56
:1020700001221A607B69BB61BB6983F3118800BFD1
:102080002037BD4680BD00BF105F0008C40100209E
:10209000A4010020C80000205C010020C400002032
:1020A000B001002080B584B000AF78603960294B62
:1020B0001B68FB60284B1B6804331846FEF706F9C3
:1020C0000346002B0BD1244B1B68DB6A012202FA6A
:1020D00003F3DA43214B1B681340204A13607B68EB
:1020E000B3F1FF3F0AD13B68002B07D01A4B1B68A6
:1020F000043319461A48FEF78DF826E0FA687B6823
:102100001344BB60144B1B68BA685A60BA68FB681A
:102110009A4209D2134B1A680F4B1B6804331946B5
:102120001046FEF79BF810E00F4B1A680A4B1B682D
:10213000043319461046FEF791F80C4B1B68BA6839
:102140009A4202D2094ABB68136000BF1037BD46ED
:1021500080BD00BFA0010020C4000020A401002019
:10216000880100205801002054010020BC010020FB
:1021700080B582B000AF78607B68B3F5E06F13D0B4
:102180007B68B3F5C06F0FD07B68B3F5A06F0BD041
:102190007B68B3F5806F07D07B68B3F5407F03D0D1
:1021A0006321074803F0AAFC064A7B6843F0BF633B
:1021B00043F40033D36000BF0837BD4680BD00BF85
:1021C0002C5F000800ED00E080B586B000AF7860BD
:1021D00000237B6100233B610F23FB607B68DB787E
:1021E000002B07D07B68DB78012B03D075213348A7
:1021F00003F084FC7B685B780F2B03D976212F4892
:1022000003F07CFC7B689B780F2B03D977212B484C
:1022100003F074FC7B68DB78002B3AD0284BDB683A
:10222000DB4303F4E0631B0A7B617B69C3F10403B6
:102230003B61FA687B6922FA03F3FB607B685B7899
:102240001A463B6902FA03F37B617B689B781A4666
:10225000FB6813407A6913437B617B691B017B61D7
:10226000184A7B681B787969C9B213440A4683F817
:102270000023144A7B681B785B09DBB218467B6835
:102280001B7803F01F03012101FA03F342F8203009
:102290000FE00C497B681B785B09DBB218467B6852
:1022A0001B7803F01F0301229A4000F1200341F83C
:1022B000232000BF1837BD4680BD00BF2C5F00083B
:1022C00000ED00E000E100E080B582B000AF786092
:1022D0007B681F4A93420BD07B681E4A934207D00B
:1022E0007B681D4A934203D0B6211C4803F006FCCC
:1022F0007B68174A93420AD101214FF4007001F024
:102300000DFC00214FF4007001F008FC1CE07B681C
:10231000104A93420AD101214FF4806001F0FEFB84
:1023200000214FF4806001F0F9FB0DE07B680A4A60
:10233000934209D101214FF4004001F0EFFB00214D
:102340004FF4004001F0EAFB00BF0837BD4680BDF6
:102350000024014000280140003C01403C5F00088F
:1023600080B584B000AF786039600023FB60002343
:10237000FB727B68804A93420BD07B687F4A934212
:1023800007D07B687E4A934203D0DF217D4803F06B
:10239000B5FB3B681B68002B30D03B681B68B3F56E
:1023A000803F2BD03B681B68B3F5003F26D03B68CD
:1023B0001B68B3F5403F21D03B681B68B3F5802F05
:1023C0001CD03B681B68B3F5A02F17D03B681B6877
:1023D000B3F5C02F12D03B681B68B3F5E02F0DD0CA
:1023E0003B681B68B3F5002F08D03B681B68B3F54A
:1023F000102F03D0E021634803F080FB3B681B797A
:10240000002B07D03B681B79012B03D0E1215D48ED
:1024100003F074FB3B685B79002B07D03B685B796A
:10242000012B03D0E221574803F068FB3B689B680F
:10243000002B43D03B689B68B3F5003F3ED03B6820
:102440009B68B3F5802F39D03B689B68B3F5C02FEC
:1024500034D03B689B68B3F5002F2FD03B689B6856
:10246000B3F5202F2AD03B689B68B3F5402F25D0C9
:102470003B689B68B3F5602F20D03B689B68002BBE
:102480001CD03B689B68B3F5003F17D03B689B6846
:10249000B3F5C02F12D03B689B68B3F5002F0DD069
:1024A0003B689B68B3F5202F08D03B689B68B3F569
:1024B000402F03D0E321334803F020FB3B68DB6867
:1024C000002B08D03B68DB68B3F5006F03D0E42134
:1024D0002C4803F013FB3B681B7C002B03D03B68AC
:1024E0001B7C102B03D9E521264803F007FB7B68F2
:1024F0005B68FB60FB6823F4702323F48073FB604C
:102500003B681A683B681B791B021343FA68134344
:10251000FB607B68FA685A607B689B68FB60FA68BE
:10252000194B1340FB603B68DA683B689B681A43B1
:102530003B685B795B001343FA681343FB607B687D
:10254000FA689A607B68DB6AFB60FB6823F47003BF
:10255000FB603B681B7C013BDAB2FB7A1343FB72E6
:10256000FB7A1B05FA681343FB607B68FA68DA6242
:1025700000BF1037BD4680BD002401400028014047
:10258000003C01403C5F0008FDF7F1FF80B582B0E0
:1025900000AF78600B46FB707B68174A93420CD003
:1025A0007B68164A934208D07B68154A934204D050
:1025B0004FF49771134803F0A1FAFB78002B07D072
:1025C000FB78012B04D040F22F110E4803F096FA4D
:1025D000FB78002B06D07B689B6843F001027B6888
:1025E0009A6005E07B689B6823F001027B689A6033
:1025F00000BF0837BD4680BD0024014000280140CF
:10260000003C01403C5F000880B582B000AF7860BC
:102610007B680D4A93420CD07B680C4A934208D0E9
:102620007B680B4A934204D04FF4BF71094803F012
:1026300065FA7B689B6843F008027B689A6000BF7C
:102640000837BD4680BD00BF00240140002801407E
:10265000003C01403C5F000880B582B000AF78606C
:102660000B46FB707B68174A93420CD07B68164A76
:10267000934208D07B68154A934204D04FF4E67128
:10268000134803F03BFAFB78002B07D0FB78012BB3
:1026900004D040F2CD110E4803F030FAFB78002B45
:1026A00006D07B689B6843F4A0027B689A6005E0D3
:1026B0007B689B6823F4A0027B689A6000BF0837A0
:1026C000BD4680BD0024014000280140003C01407F
:1026D0003C5F000880B584B000AF786008461146C2
:1026E0001A460346FB700B46BB7013467B700023F3
:1026F000FB600023BB607B68944A93420CD07B68EC
:10270000934A934208D07B68924A934204D040F2A5
:102710005221914803F0F2F9FB78002B37D0FB7877
:10272000012B34D0FB78022B31D0FB78032B2ED039
:10273000FB78042B2BD0FB78052B28D0FB78062BBD
:1027400025D0FB78072B22D0FB78082B1FD0FB78F5
:10275000092B1CD0FB780A2B19D0FB780B2B16D039
:10276000FB780C2B13D0FB780D2B10D0FB780E2BA5
:102770000DD0FB780F2B0AD0FB78102B07D0FB78FD
:10278000112B04D040F25321734803F0B7F9BB7802
:10279000002B02D0BB78102B04D94FF415716E4872
:1027A00003F0ACF97B78002B19D07B78012B16D085
:1027B0007B78022B13D07B78032B10D07B78042BF3
:1027C0000DD07B78052B0AD07B78062B07D07B7841
:1027D000072B04D040F255215F4803F08FF9FB78B6
:1027E000092B23D97B68DB68FB60FB78A3F10A0225
:1027F00013465B001344072202FA03F3BB60BB6875
:10280000DB43FA681340FB607978FB78A3F10A0296
:1028100013465B00134401FA03F3BB60FA68BB681C
:102820001343FB607B68FA68DA601EE07B681B6913
:10283000FB60FA7813465B001344072202FA03F3A5
:10284000BB60BB68DB43FA681340FB607978FA78B9
:1028500013465B00134401FA03F3BB60FA68BB68DC
:102860001343FB607B68FA681A61BB78062B21D89A
:102870007B685B6BFB60BB785A1E13469B0013445E
:102880001F2202FA03F3BB60BB68DB43FA68134004
:10289000FB60F978BB785A1E13469B00134401FA7B
:1028A00003F3BB60FA68BB681343FB607B68FA689C
:1028B0005A6347E0BB780C2B21D87B681B6BFB600D
:1028C000BB78DA1F13469B0013441F2202FA03F35E
:1028D000BB60BB68DB43FA681340FB60F978BB78E8
:1028E000DA1F13469B00134401FA03F3BB60FA6836
:1028F000BB681343FB607B68FA681A6322E07B685D
:10290000DB6AFB60BB78A3F10D0213469B00134406
:102910001F2202FA03F3BB60BB68DB43FA68134073
:10292000FB60F978BB78A3F10D0213469B001344BA
:1029300001FA03F3BB60FA68BB681343FB607B6872
:10294000FA68DA6200BF1037BD4680BD002401403E
:1029500000280140003C01403C5F000880B582B087
:1029600000AF78607B680B4A93420CD07B680A4AC0
:10297000934208D07B68094A934204D040F2C721B1
:10298000074803F0BBF87B68DB6C9BB2184608373E
:10299000BD4680BD0024014000280140003C0140AC
:1029A0003C5F000880B582B000AF0346FB71FB7945
:1029B000002B07D0FB79012B04D040F292410B4849
:1029C00003F09CF8FB79002B06D0094A084B9B6862
:1029D00043F40003936005E0054A054B9B6823F42C
:1029E0000003936000BF0837BD4680BD3C5F000810
:1029F0000024014080B584B000AF78600B46FB70C6
:102A00000023FB737B681A4A93420CD07B68194AF7
:102A1000934208D07B68184A934204D040F2AF41F9
:102A2000164803F06BF8FB78012B10D0FB78022BD3
:102A30000DD0FB78042B0AD0FB78082B07D0FB784D
:102A4000102B04D04FF496610C4803F057F87B68C4
:102A50001A68FB781340002B02D00123FB7301E0BE
:102A60000023FB73FB7B18461037BD4680BD00BFBB
:102A70000024014000280140003C01403C5F000868
:102A800080B582B000AF78600B46FB707B68124A5D
:102A900093420CD07B68114A934208D07B68104A5D
:102AA000934204D040F2CF410E4803F027F8FB7860
:102AB00003F0E003002B02D1FB78002B04D14FF48C
:102AC0009A61084803F01AF8FB78DA437B681A60C9
:102AD00000BF0837BD4680BD0024014000280140EA
:102AE000003C01403C5F000880B500AF012001F0D0
:102AF00089F8002001F086F800BF80BD80B483B063
:102B000000AF7860044A7B681360034B1B6818466B
:102B10000C37BD4680BC70470030024080B582B0A3
:102B200000AF78600B46FB707B682A4A934230D036
:102B30007B68294A93422CD07B68284A934228D04C
:102B40007B68274A934224D07B68264A934220D050
:102B50007B68254A93421CD07B68244A934218D054
:102B60007B68234A934214D07B68224A934210D058
:102B70007B68214A93420CD07B68204A934208D05C
:102B80007B681F4A934204D040F229111D4802F08D
:102B9000B5FFFB78002B07D0FB78012B04D04FF456
:102BA0009571184802F0AAFFFB78002B06D07B68CD
:102BB0001B6843F001027B681A6006E07B681A68B4
:102BC0004FF6FE7313407A68136000BF0837BD46A6
:102BD00080BD00BF080002401C00024030000240DF
:102BE00044000240580002406C0002408000024055
:102BF000080402401C040240300402404404024025
:102C000058040240545F000880B584B000AF78607B
:102C10000023FB730023BB607B68012B00F0CA809C
:102C20007B68022B00F0C6807B68042B00F0C2801A
:102C30007B68082B00F0BE807B68102B00F0BA8008
:102C40007B68202B00F0B6807B68402B00F0B280C0
:102C50007B68802B00F0AE807B68B3F5807F00F04E
:102C6000A9807B68B3F5007F00F0A4807B68B3F592
:102C7000806F00F09F807B68B3F5006F00F09A8052
:102C80007B68B3F5805F00F095807B68B3F5005FEB
:102C900000F090807B68B3F5804F00F08B807B68FC
:102CA000B3F5004F00F086807B68B3F5803F00F0FD
:102CB00081807B68B3F5003F7CD07B68B3F5802FC3
:102CC00078D07B68B3F5002F74D07B68B3F5801F94
:102CD00070D07B68B3F5001F6CD07B68B3F5800FB4
:102CE00068D07B68B3F5000F64D07B68B3F1807F58
:102CF00060D07B68B3F1007F5CD07B68B3F1806FFC
:102D000058D07B68B3F1006F54D07B68374A934248
:102D100050D07B68364A93424CD07B68354A934208
:102D200048D07B68344A934244D07B68334A93420C
:102D300040D07B68324A93423CD07B68314A934210
:102D400038D07B68304A934234D07B682F4A934214
:102D500030D07B682E4A93422CD07B682D4A934218
:102D600028D07B682C4A934224D07B68B3F1102F83
:102D700020D07B68294A93421CD07B68284A934222
:102D800018D07B68274A934214D07B68264A934226
:102D900010D07B68254A93420CD07B68244A93422A
:102DA00008D07B68234A934204D040F2592122483C
:102DB00002F0A4FE7B6803F08053002B03D01F4B6E
:102DC0001B68BB6002E01E4B1B68BB60BA687B6877
:102DD0001340002B02D00123FB7301E00023FB739F
:102DE000FB7B18461037BD4680BD00BF01000010B8
:102DF0000200001004000010080000101000001075
:102E000020000010400000108000001000010010A1
:102E10000002001000040010000800100020001044
:102E2000004000100080001000000110000002109F
:102E30000000041000000810545F00080004024065
:102E40000000024080B582B000AF78607B6803F07C
:102E50007043002B04D07A680D4B1340002B02D135
:102E60007B68002B04D140F2AF210A4802F046FEF5
:102E70007B6803F08053002B03D0074A7B685360C4
:102E800002E0064A7B68536000BF0837BD4680BD3C
:102E90000000F0EF545F0008000402400000024010
:102EA00080B588B000AF786039600023FB610023F3
:102EB0003B610023BB610023FB6000237B61002397
:102EC000BB607B68824A93421BD07B68814A9342F5
:102ED00017D07B68804A934213D07B687F4A934225
:102EE0000FD07B687E4A93420BD07B687D4A934229
:102EF00007D07B687C4A934203D0B2217B4802F022
:102F0000FDFD3B68DB78002B1FD03B68DB78042B92
:102F10001BD03B68DB78282B17D03B68DB78482B2D
:102F200013D03B68DB78142B0FD03B68DB78102B79
:102F30000BD03B68DB781C2B07D03B68DB78182B69
:102F400003D0B321694802F0D9FD3B681B88002BF0
:102F500003D1B421654802F0D1FD3B68DB7803F072
:102F60000F03FB613B68DB7803F01003002B15D0E7
:102F70003B689B78012B0BD03B689B78022B07D0DA
:102F80003B689B78032B03D0BB21584802F0B6FD69
:102F90003B689B781A46FB691343FB613B681B88BF
:102FA000DBB2002B44D07B681B687B610023BB61D4
:102FB00038E00122BB6902FA03F3FB603B681B881F
:102FC0001A46FB6813403B613A69FB689A4226D176
:102FD000BB699B00FB600F22FB6802FA03F3BB6036
:102FE000BB68DB437A6913407B61FA69FB6802FACC
:102FF00003F37A6913437B613B68DB78282B05D1A7
:103000000122BB699A407B685A6108E03B68DB7823
:10301000482B04D10122BB699A407B681A61BB69C5
:103020000133BB61BB69072BC3D97B687A691A601E
:103030003B681B88FF2B46D97B685B687B6100235C
:10304000BB613AE0BB690833012202FA03F3FB607B
:103050003B681B881A46FB6813403B613A69FB6872
:103060009A4227D1BB699B00FB600F22FB6802FAE2
:1030700003F3BB60BB68DB437A6913407B61FA6989
:10308000FB6802FA03F37A6913437B613B68DB78E0
:10309000282B05D1BB69083301229A407B685A610D
:1030A0003B68DB78482B05D1BB69083301229A4085
:1030B0007B681A61BB690133BB61BB69072BC1D94E
:1030C0007B687A695A6000BF2037BD4680BD00BF6B
:1030D00000080140000C01400010014000140140B4
:1030E00000180140001C0140002001406C5F0008F6
:1030F00080B483B000AF78607B684FF6FF721A80AF
:103100007B6802229A707B680422DA7000BF0C3759
:10311000BD4680BC704700BF80B58AB000AF786004
:1031200039600023FB8400237B840423BB84854B0C
:10313000FB617B68844A934207D07B68834A934251
:1031400003D0C621824802F0D9FC3B681B68002BE3
:1031500004D03B681B687F4A934203D9C7217C484F
:1031600002F0CCFC3B689B88002B0BD03B689B8813
:10317000022B07D03B689B880A2B03D0C8217448D8
:1031800002F0BCFC3B68DB88B3F5804F09D03B689C
:10319000DB884BF6FF72934203D0C9216C4802F0E2
:1031A000ADFC3B681B89B3F5806F03D3CA21684827
:1031B00002F0A4FC3B685B89B3F5806F07D03B68E5
:1031C0005B89002B03D0CB21614802F097FC3B6860
:1031D0009B89B3F5804F08D03B689B89B3F5404F7E
:1031E00003D0CC215A4802F089FC7B689B88FB8481
:1031F000FB8C23F03F03FB8407F10803184600F023
:103200002FFB3B69FB61FB69534AA2FB03239B0C29
:103210007B84FA8C7B8C1343FB847B68FA8C9A80CA
:103220007B681B889BB223F001039AB27B681A80EB
:103230000023FB843B681B68484A934215D83B68CF
:103240001B685B00FA69B2FBF3F3BB84BB8C032BF6
:1032500001D80423BB84FA8CBB8C1343FB847B8C86
:1032600001339AB27B681A8440E03B68DB884BF6F6
:10327000FF72934209D13B681A6813465B001344FE
:10328000FA69B2FBF3F3BB840EE03B681A6813469D
:103290009B0013449A001344FA69B2FBF3F3BB8416
:1032A000BB8C43F48043BB84BB8CC3F30B03002B68
:1032B00003D1BB8C43F00103BB84BA8CFB8C13435A
:1032C0009BB26FEA43436FEA5343FB847B8C4FF41A
:1032D000967202FB03F3224A82FB03129211DB1760
:1032E000D31A9BB201339AB27B681A847B68FA8C3A
:1032F0009A837B681B889BB243F001039AB27B6878
:103300001A807B681B88FB84FB8C23F4816323F089
:103310000203FB843B689A883B685B8913439AB23B
:10332000FB8C1343FB847B68FA8C1A803B689A8978
:103330003B681B8913439AB27B681A8100BF283708
:10334000BD4680BD00127A00005400400058004085
:10335000885F0008801A060083DE1B43A0860100F8
:10336000D34D621080B582B000AF78600B46FB7021
:103370007B68174A934208D07B68164A934204D070
:1033800040F24511144802F0B9FBFB78002B07D03E
:10339000FB78012B04D04FF4A3710F4802F0AEFB71
:1033A000FB78002B08D07B681B889BB243F001039D
:1033B0009AB27B681A8007E07B681B889BB223F077
:1033C00001039AB27B681A8000BF0837BD4680BDF2
:1033D0000054004000580040885F000880B582B06B
:1033E00000AF78600B46FB707B68174A934208D0A9
:1033F0007B68164A934204D040F28D11144802F0C3
:103400007DFBFB78002B07D0FB78012B04D04FF419
:10341000C7710F4802F072FBFB78002B08D07B6865
:103420001B889BB243F480739AB27B681A8007E0D2
:103430007B681B889BB223F480739AB27B681A80E6
:1034400000BF0837BD4680BD005400400058004012
:10345000885F000880B582B000AF78600B46FB70D3
:103460007B68174A934208D07B68164A934204D07F
:1034700040F2A511144802F041FBFB78002B07D065
:10348000FB78012B04D04FF4D3710F4802F036FBC8
:10349000FB78002B08D07B681B889BB243F4007339
:1034A0009AB27B681A8007E07B681B889BB223F482
:1034B00000739AB27B681A8000BF0837BD4680BD92
:1034C0000054004000580040885F000880B582B07A
:1034D00000AF78600B46FB707B680A4A934208D0C5
:1034E0007B68094A934204D040F23D21074802F02C
:1034F00005FBFB789AB27B681A8200BF0837BD468D
:1035000080BD00BF0054004000580040885F0008A4
:1035100080B582B000AF78600B46FB701346BB707D
:103520007B68154A934208D07B68144A934204D0C2
:103530004FF41771124802F0E1FABB78002B07D064
:10354000BB78012B04D040F25D210D4802F0D6FA81
:10355000BB78002B04D0FB7843F00103FB7003E041
:10356000FB7823F00103FB70FB789AB27B681A8228
:1035700000BF0837BD4680BD0054004000580040E1
:10358000885F000880B586B000AF7860396000239E
:103590003B610023FB600023BB600023FB757B685D
:1035A000404A934208D07B683F4A934204D040F29D
:1035B0000D413E4802F0A2FA3B683D4A93424FD08B
:1035C0003B68B3F1021F4BD03B683A4A934247D065
:1035D0003B68B3F5020F43D03B68B3F5901F3FD073
:1035E0003B68354A93423BD03B68344A934237D0DC
:1035F0003B68334A934233D03B68324A93422FD0E0
:103600003B68314A93422BD03B68304A934227D0E3
:103610003B68102B24D03B682D4A934220D03B6856
:103620002C4A93421CD03B682B4A934218D03B68EB
:103630002A4A934214D03B68294A934210D03B68EF
:10364000284A93420CD03B68274A934208D03B68F3
:10365000B3F5806F04D040F20E41144802F04EFAE8
:103660007B689B8A9BB2FB607B681B8B9BB2BB60B9
:10367000BB681B04BB60FA68BB68134323F07F433D
:103680003B613A693B681A403B689A4202D1012388
:10369000FB7501E00023FB75FB7D18461837BD461E
:1036A00080BD00BF0054004000580040885F000803
:1036B0008200060080008600400002004000820078
:1036C000400012008400060084008600840016007A
:1036D0000100030082000700020003004000030015
:1036E00084000700800007000800030080B582B056
:1036F00000AF0346FB71FB79002B06D0FB79012B51
:1037000003D07F21044802F0F9F9044AFB791360E1
:1037100000BF0837BD4680BDA05F000820000E42F4
:1037200080B584B000AF78600023FB607B68002B1D
:1037300010D07B68B3F5804F0CD07B68B3F5004F99
:1037400008D07B68B3F5404F04D040F202310A48FC
:1037500002F0D4F9094B5B68FB60FB6823F440433B
:10376000FB60FA687B681343FB60044AFB685360A4
:1037700000BF1037BD4680BDB85F00080010024092
:1037800080B582B000AF0346FB71FB79002B0AD0F5
:10379000FB79012B07D0FB79042B04D04FF4507137
:1037A0000D4802F0ABF90D4B00221A700B4B0022B2
:1037B0001A70FB79012B02D0042B04D007E0074BD1
:1037C00001221A7003E0054B05221A7000BF00BFEA
:1037D0000837BD4680BD00BFB85F0008201002401A
:1037E00080B582B000AF78607B68B3F5807F0CD085
:1037F0007B68B3F5007F08D07B68B3F5407F04D0C9
:1038000040F27231064802F079F90649054B1A6A0E
:103810007B6813430B6200BF0837BD4680BD00BF05
:10382000B85F00080010024080B582B000AF0346C8
:10383000FB71FB79002B07D0FB79012B04D04FF4EF
:103840006071054802F05AF9044AFB79136000BF21
:103850000837BD4680BD00BFB85F00083C04424247
:1038600080B487B000AF786000237B6100233B61A8
:103870000023FB600023BB604C4B5B6803F00C0330
:103880007B617B69042B07D0082B09D0002B33D137
:103890007B68474A1A6033E07B68454A1A602FE02C
:1038A000424B5B6803F470133B61404B5B6803F46D
:1038B0008033FB603B699B0C02333B61FB68002B50
:1038C00006D13B693B4A02FB03F27B681A6017E0B2
:1038D000364B5B6803F40033002B06D03B69354A56
:1038E00002FB03F27B681A600AE03B69304A02FB84
:1038F00003F27B681A6003E07B682D4A1A6000BF00
:103900002A4B5B6803F0F0037B617B691B097B61D9
:10391000294A7B6913441B78DBB2BB607B681A6859
:10392000BB68DA407B685A60204B5B6803F4E06355
:103930007B617B691B0A7B611F4A7B6913441B788F
:10394000DBB2BB607B685A68BB68DA407B689A6010
:10395000164B5B6803F460537B617B69DB0A7B6118
:10396000154A7B6913441B78DBB2BB607B685A68DD
:10397000BB68DA407B68DA600C4B5B6803F4404359
:103980007B617B699B0B7B610C4A7B6913441B78D1
:10399000DBB2BB607B68DA68BB68B2FBF3F27B68C2
:1039A0001A6100BF1C37BD4680BC70470010024042
:1039B00000127A0000093D000400002014000020DD
:1039C00080B582B000AF78600B46FB707B6823F453
:1039D000AA6323F00703002B02D17B68002B04D1DC
:1039E00040F22B41114802F089F8FB78002B07D0F8
:1039F000FB78012B04D040F22C410C4802F07EF8F9
:103A0000FB78002B06D00A49094B5A697B6813439F
:103A10004B6106E00649064B5A697B68DB4313405D
:103A20004B6100BF0837BD4680BD00BFB85F0008CE
:103A30000010024080B582B000AF78600B46FB708A
:103A40007A68164B1340002B02D17B68002B04D1FF
:103A500040F24A41124802F051F8FB78002B07D09F
:103A6000FB78012B04D040F24B410D4802F046F8A0
:103A7000FB78002B06D00B490A4B9A697B681343ED
:103A80008B6106E00749074B9A697B68DB4313406B
:103A90008B6100BF0837BD4680BD00BF0200C0FF7C
:103AA000B85F00080010024080B582B000AF7860B7
:103AB0000B46FB707A68164B1340002B02D17B68D3
:103AC000002B04D140F26941124802F017F8FB784C
:103AD000002B07D0FB78012B04D040F26A410D483F
:103AE00002F00CF8FB78002B06D00B490A4BDA6980
:103AF0007B681343CB6106E00749074BDA697B68B3
:103B0000DB431340CB6100BF0837BD4680BD00BF1B
:103B100000360181B85F00080010024080B582B015
:103B200000AF78600B46FB707A68164B1340002B91
:103B300002D17B68002B04D140F2A441124801F06D
:103B4000DDFFFB78002B07D0FB78012B04D040F27F
:103B5000A5410D4801F0D2FFFB78002B06D00B49A0
:103B60000A4BDA687B681343CB6006E00749074BD2
:103B7000DA687B68DB431340CB6000BF0837BD4683
:103B800080BD00BF0200C0FFB85F00080010024007
:103B900080B582B000AF78600B46FB707A68164B38
:103BA0001340002B02D17B68002B04D140F2C341AB
:103BB000124801F0A3FFFB78002B07D0FB78012B04
:103BC00004D040F2C4410D4801F098FFFB78002B6F
:103BD00006D00B490A4B1A697B6813430B6106E058
:103BE0000749074B1A697B68DB4313400B6100BF31
:103BF0000837BD4680BD00BF00360181B85F0008B0
:103C00000010024080B582B000AF0346FB71FB7923
:103C1000002B07D0FB79012B04D04FF49B610548A2
:103C200001F06CFF044AFB79136000BF0837BD4602
:103C300080BD00BFB85F00084004424280B586B036
:103C400000AF0346FB710023FB6000237B61002370
:103C5000FB74FB79212B22D0FB79312B1FD0FB7910
:103C6000392B1CD0FB79412B19D0FB79612B16D055
:103C7000FB797A2B13D0FB797B2B10D0FB797C2B33
:103C80000DD0FB797D2B0AD0FB797E2B07D0FB79F9
:103C90007F2B04D040F23451164801F02FFFFB79FE
:103CA0005B09DBB2FB60FB68012B03D1124B1B6885
:103CB0007B6109E0FB68022B03D10F4B1B6A7B6120
:103CC00002E00D4B5B6A7B61FB7903F01F03FB6035
:103CD0007A69FB6822FA03F303F00103002B02D098
:103CE0000123FB7401E00023FB74FB7C18461837AA
:103CF000BD4680BDB85F00080010024080B582B0AC
:103D000000AF03460A46FB8013467B71FA884FF6E4
:103D1000F8731340002B02D1FB88002B03D15D21E7
:103D2000134801F0EBFE7B79002B06D07B79012B49
:103D300003D05E210E4801F0E1FE7B79002B08D014
:103D40000C490C4B1B889AB2FB8813439BB20B8027
:103D500009E00849074B1B889AB2FB88DB439BB2FA
:103D600013409BB20B8000BF0837BD4680BD00BF2B
:103D7000D05F00080028004080B400AF054A054B22
:103D80009B889BB243F010039BB2938000BFBD465B
:103D900080BC70470028004080B400AF054A054B46
:103DA0009B889BB223F010039BB2938000BFBD465B
:103DB00080BC70470028004080B483B000AF00236F
:103DC000FB80074B9B8BFB80054B1B8B9BB21A0424
:103DD000FB88134318460C37BD4680BC704700BFB4
:103DE0000028004080B582B000AF7860FFF7C4FFC4
:103DF000074A7B681B0C9BB21383054B7A6892B20F
:103E00009A83FFF7C9FF00BF0837BD4680BD00BFDA
:103E10000028004080B582B000AF78607B68B3F5C1
:103E2000801F03D3A3210B4801F068FEFFF7A4FF16
:103E3000094A7B681B0C9BB203F00F039BB21381F2
:103E4000054B7A6892B29A81FFF7A6FF00BF083748
:103E5000BD4680BDD05F00080028004080B400AFA0
:103E600000BF054B9B889BB203F02003002BF8D0CA
:103E700000BFBD4680BC70470028004080B400AF42
:103E8000094A094B9B889BB223F008039BB293809D
:103E900000BF054B9B889BB203F00803002BF8D0B2
:103EA00000BFBD4680BC70470028004080B584B08C
:103EB00000AF0346FB800023FB73FB88042B0AD072
:103EC000FB88022B07D0FB88012B04D040F227117E
:103ED0000F4801F013FE0F4B9B889BB2DAB2FB88B0
:103EE000DBB21340FB730B4B1B889AB2FB88134069
:103EF0009BB2002B05D0FB7B002B02D00123FB7370
:103F000001E00023FB73FB7B18461037BD4680BDE4
:103F1000D05F00080028004080B582B000AF0346A3
:103F2000FB80FA884FF6F8731340002B02D1FB8810
:103F3000002B04D140F24111084801F0DFFD08498F
:103F4000074B9B889AB2FB88DB439BB213409BB222
:103F50008B8000BF0837BD4680BD00BFD05F000822
:103F60000028004080B58CB000AF78603960002335
:103F7000FB620023BB6200237B6200233B620023C1
:103F8000FB617B689D4A934213D07B689C4A9342B5
:103F90000FD07B689B4A93420BD07B689A4A93422E
:103FA00007D07B68994A934203D0B821984801F022
:103FB000A5FD3B681B68002B04D03B681B68954A35
:103FC000934203D9B921924801F098FD3B689B8840
:103FD000002B08D03B689B88B3F5805F03D0BA21E3
:103FE0008B4801F08BFD3B68DB88002B12D03B68CF
:103FF000DB88B3F5805F0DD03B68DB88B3F5005FED
:1040000008D03B68DB88B3F5405F03D0BB21804814
:1040100001F074FD3B681B89002B0DD03B681B89A8
:10402000B3F5806F08D03B681B89B3F5C06F03D030
:10403000BC21774801F062FD3B685B891A464FF668
:10404000F3731340002B03D13B685B89002B03D132
:10405000BD216F4801F052FD3B689B89002B12D0B7
:104060003B689B89B3F5807F0DD03B689B89B3F596
:10407000007F08D03B689B89B3F5407F03D0BE2109
:10408000634801F03BFD3B689B89002B0FD07B68A8
:104090005A4A93420BD07B68594A934207D07B68B7
:1040A000584A934203D0C221594801F027FD7B684A
:1040B000FB617B681B8A9BB2FB62FA6A4CF6FF735A
:1040C0001340FB623B68DB881A46FB6A1343FB62C2
:1040D000FB6A9AB27B681A827B689B899BB2FB62FF
:1040E000FA6A4EF6F3131340FB623B689A883B680A
:1040F0001B8913439AB23B685B8913439BB21A46F0
:10410000FB6A1343FB62FB6A9AB27B689A817B6805
:104110009B8A9BB2FB62FA6A4FF6FF431340FB6235
:104120003B689B891A46FB6A1343FB62FB6A9AB29F
:104130007B689A8207F108031846FFF791FBFB6939
:104140002E4A934202D17B69BB6201E03B69BB62AC
:104150007B689B899BB21BB2002B0CDABA6A1346B0
:104160009B0013449A001A443B681B685B00B2FB37
:10417000F3F37B620BE0BA6A13469B0013449A0088
:104180001A443B681B689B00B2FBF3F37B627B6ABB
:10419000214AA2FB03235B091B01FB62FB6A1B098B
:1041A000642202FB03F37A6AD31A3B627B689B8921
:1041B0009BB21BB2002B0CDA3B6ADB003233164A8F
:1041C000A2FB03235B0903F00703FA6A1343FB62B4
:1041D0000BE03B6A1B0132330F4AA2FB03235B094E
:1041E00003F00F03FA6A1343FB62FB6A9AB27B681F
:1041F0001A8100BF3037BD4680BD00BF0038014086
:104200000044004000480040004C00400050004086
:10421000E85F000820AA44001F85EB5180B582B0FA
:1042200000AF78600B46FB707B681D4A934214D048
:104230007B681C4A934210D07B681B4A93420CD087
:104240007B681A4A934208D07B68194A934204D08B
:104250004FF4B171174801F051FCFB78002B07D0E7
:10426000FB78012B04D040F26311124801F046FCA8
:10427000FB78002B08D07B689B899BB243F40053EA
:104280009AB27B689A8107E07B689B899BB223F492
:1042900000539AB27B689A8100BF0837BD4680BD43
:1042A000003801400044004000480040004C0040FD
:1042B00000500040E85F000880B586B000AF78602D
:1042C0000B467B8013467B7000233B610023FB6021
:1042D0000023BB6000237B617B684C4A934214D06F
:1042E0007B684B4A934210D07B684A4A93420CD079
:1042F0007B68494A934208D07B68484A934204D07D
:1043000040F28911464801F0F9FB7B88282B25D023
:104310007B8840F22772934220D07B8840F226624D
:1043200093421BD07B8840F22552934216D07B8863
:1043300040F22442934211D07B8840F646029342D9
:104340000CD07B8840F66A12934207D07B88602BA2
:1043500004D04FF4C571324801F0D0FB7B78002BBC
:1043600007D07B78012B04D040F28B112C4801F050
:10437000C5FB7B8840F66A12934210D17B68234AC2
:1043800093420CD07B68224A934208D07B68214A32
:10439000934204D040F28F11214801F0AFFB7B68BB
:1043A0007B617B88DBB25B09DBB23B617B8803F01E
:1043B0001F03FB600122FB6802FA03F3BB603B6949
:1043C000012B03D17B690C337B6109E03B69022B34
:1043D00003D17B6910337B6102E07B6914337B611D
:1043E0007B78002B06D07B697A691168BA680A432A
:1043F0001A6006E07B697A691168BA68D2430A409C
:104400001A6000BF1837BD4680BD00BF00380140AC
:104410000044004000480040004C00400050004074
:10442000E85F000880B582B000AF78600B467B8003
:104430007B68154A934214D07B68144A934210D08B
:104440007B68134A93420CD07B68124A934208D08F
:104450007B68114A934204D040F253210F4801F087
:104460004DFB7B88B3F5007F04D34FF415710B48E7
:1044700001F044FB7B88C3F308039AB27B689A80FF
:1044800000BF0837BD4680BD0038014000440040F1
:1044900000480040004C004000500040E85F000829
:1044A00080B582B000AF78607B68114A934214D027
:1044B0007B68104A934210D07B680F4A93420CD01D
:1044C0007B680E4A934208D07B680D4A934204D021
:1044D0004FF419710B4801F011FB7B689B889BB26C
:1044E000C3F308039BB218460837BD4680BD00BF22
:1044F000003801400044004000480040004C0040AB
:1045000000500040E85F000880B586B000AF7860DA
:104510000B467B800023FB6000237B610023BB6094
:104520000023FB747B68554A934214D07B68544A3D
:10453000934210D07B68534A93420CD07B68524A16
:10454000934208D07B68514A934204D040F2C13173
:104550004F4801F0D3FA7B88282B2ED07B8840F27D
:104560002772934229D07B8840F22662934224D05E
:104570007B8840F2255293421FD07B8840F2244230
:1045800093421AD07B8840F64602934215D07B882E
:1045900040F66A12934210D07B88B3F5587F0CD056
:1045A0007B88B3F5187F08D07B88B3F5B07F04D043
:1045B00040F2C231364801F0A1FA7B8840F66A1217
:1045C000934210D17B682D4A93420CD07B682C4AD1
:1045D000934208D07B682B4A934204D040F2C63104
:1045E0002B4801F08BFA7B88DBB25B09DBB2BB6046
:1045F0007B8803F01F037B6101227B6902FA03F3CE
:104600007B61BB68012B07D17B689B899BB21A46F3
:104610007B6913407B6111E0BB68022B07D17B688B
:104620001B8A9BB21A467B6913407B6106E07B685C
:104630009B8A9BB21A467B6913407B617B881B0A6D
:104640009BB2FB600122FB6802FA03F3FB607B680C
:104650001B889BB21A46FB681340FB607B69002BEA
:1046600005D0FB68002B02D00123FB7401E000237E
:10467000FB74FB7C18461837BD4680BD00380140EE
:104680000044004000480040004C00400050004002
:10469000E85F000880B584B000AF78600B467B808F
:1046A0000023FB810023BB817B682C4A934214D0FA
:1046B0007B682B4A934210D07B682A4A93420CD0E5
:1046C0007B68294A934208D07B68284A934204D0E9
:1046D00040F20A41264801F011FA7B8840F2266236
:1046E000934213D07B8840F2255293420ED07B88B0
:1046F00040F64602934209D07B8840F66A12934204
:1047000004D040F20B411A4801F0F8F97B8840F6DA
:104710006A12934210D17B68104A93420CD07B6896
:104720000F4A934208D07B680E4A934204D040F26D
:104730000F410F4801F0E2F97B881B0AFB81FB89DE
:10474000012202FA03F3BB81BB89DB439AB27B6887
:104750001A8000BF1037BD4680BD00BF0038014041
:104760000044004000480040004C00400050004021
:10477000E85F000880B58AB000AFF860B9607A6081
:1047800001210820FFF756F907F124031846FEF728
:10479000AFFCFB682D4A93421DD101214FF400105C
:1047A000FFF782F9C023BB84032387F826301C233C
:1047B00087F8273007F1240319462548FEF770FBD8
:1047C00001214FF40010FFF7E3F900214FF400102E
:1047D000FFF7DEF91DE001214FF48000FFF764F9D7
:1047E0004FF44063BB84032387F826301C2387F8EB
:1047F000273007F1240319461548FEF751FB012124
:104800004FF48000FFF7C4F900214FF48000FFF758
:10481000BFF90121F868FEF7A5FD00233B834BF6A5
:10482000FF737B837B689BB2BB830023FB834FF4C6
:1048300080433B84BB687B6107F114031946F86829
:10484000FEF76AFC00BF2837BD4680BD005400401B
:10485000000C014080B586B000AFF860B9607A60A6
:104860007B68002B25D00023FB821AE0FB8ABA6804
:1048700013441B781946F868FEF728FE4FF6FF73BD
:104880003B6104E03B695A1E3A61002B13D00D498D
:10489000F868FEF777FE0346002BF3D0FB8A01335E
:1048A000FB82FA8A7B689A42E0D30121F868FEF71E
:1048B000D1FD012301E000BF002318461837BD4693
:1048C00080BD00BF8400070080B500AF4FF400102A
:1048D000FEF79AF90346002B0BD04FF4E000FEF7E9
:1048E000B1FA00210448FEF719F901210348FEF747
:1048F000B1FD00BF80BD00BF6C000240005400400D
:1049000080B500AF4FF40050FEF77EF90346002B50
:104910000BD000210648FEF701F94FF4E040FEF706
:1049200091FA01210348FEF795FD00BF80BD00BF4D
:10493000440002400058004080B500AF00F0C4F8C9
:1049400000F0CCF800F0DEF8002000F03DF800BFE9
:1049500080BD00BF80B588B000AF78600123FB61E7
:10496000FDF722F90246164B1A60FFF7E5FFFB69D7
:10497000002B1FD0134800F0EFF807F108030021C7
:10498000184600F031FA0346002B10D007F110034F
:10499000184600F029F807F11003002209211846F3
:1049A00000F096FB002000F059FA0023FB61FB6940
:1049B000002BE2D1C8210120FDF70AFAF861D6E701
:1049C000C8010020CC01002080B582B000AF786023
:1049D000FFF744FA7868FFF705FAFFF73FFA00BFE0
:1049E0000837BD4680BD00BF80B483B000AF78609B
:1049F000334B1B79334AA2FB0323DB08DBB2303392
:104A0000DAB27B681A707B68581C2D4B1A792D4BD3
:104A1000A3FB0213D9080B469B000B445B00D31A7F
:104A2000DBB23033DBB203707B6802333A221A7098
:104A30007B680333224A52792249A1FB0212D20831
:104A4000D2B23032D2B21A707B68181D1C4B5A7920
:104A50001C4BA3FB0213D9080B469B000B445B00C5
:104A6000D31ADBB23033DBB203707B6805333A22F2
:104A70001A707B680633124A92791249A1FB02121E
:104A8000D208D2B23032D2B21A707B68D81D0C4B29
:104A90009A790C4BA3FB0213D9080B469B000B44DD
:104AA0005B00D31ADBB23033DBB203707B680833B0
:104AB00000221A7000BF0C37BD4680BC704700BF93
:104AC000CC010020CDCCCCCC80B500AF01214FF083
:104AD000C050FEF7E9FF00BF80BD00BF80B582B0C7
:104AE00000AF03233B710D237B710023BB710123B6
:104AF000FB713B1D1846FDF767FB00BF0837BD463D
:104B000080BD00BF80B500AF0120FEF7EFFDFDF7CF
:104B1000EBFF0120FEF734FE00BF4120FFF78EF8C7
:104B20000346002BF9D04FF48070FEF759FE0120A8
:104B3000FEF77AFEFFF7A2F9FFF790F901210120B5
:104B4000FFF7DCF8FFF78AF947F6FF70FFF762F925
:104B5000FFF784F900BF80BD80B586B000AF7860F4
:104B600000237B61FFF728F978617969544BA3FB37
:104B700001235A0913461B019B1A9B00CA1AD2B281
:104B80007B689A717B694E4AA2FB03235B097B61B8
:104B900079694B4BA3FB01235A0913461B019B1A4E
:104BA0009B00CA1AD2B27B685A717B69444AA2FB45
:104BB00003235B097B617969424BA3FB01231A093B
:104BC00013465B001344DB00CA1AD2B27B681A7129
:104BD0007B693C4AA2FB03231B097B617B693A4A40
:104BE000A2FB0323DB099BB29B009BB203F2B273CF
:104BF0009AB27B681A807B69334AA2FB0312D209FE
:104C000040F2B55101FB02F29B1A7B617B69B3F55F
:104C1000896F02D37B69013B00E07B69BB60BA68A6
:104C20002A4BA3FB0213D21A520813441B0ABB607F
:104C30007B681A88BB689BB213449AB27B681A805F
:104C4000BB6840F26D1202FB03F2BB68022B01D974
:104C5000012300E0002313447A69D31A7B61002307
:104C6000FB6018E01A4AFB6813441B783B61FB6841
:104C7000012B05D1BB68022B02D13B6901333B619B
:104C80007A693B699A420AD37A693B69D31A7B6194
:104C9000FB680133FB60FB680B2BE3D900E000BF2E
:104CA000FB68DBB20133DAB27B689A707B69DBB2F6
:104CB0000133DAB27B68DA7000BF1837BD4680BDB9
:104CC00089888888ABAAAAAA73B06D1661F31967A0
:104CD0000460000880B582B000AF00237B60012033
:104CE000FFF7E4F80346002B0FD00120FFF714F97B
:104CF0000D4B1B68002B06D00B4B1B683A1D114651
:104D00001846FDF747F9FFF7A9F87B68002B07D095
:104D1000064B4FF080521A60BFF34F8FBFF36F8F77
:104D200000BF0837BD4680BDC801002004ED00E08B
:104D300080B500AF1B2206490648FFF71BFD064B56
:104D400000221A7000F0B2F800F08EF900BF80BDAA
:104D5000407E050000540040240A002080B584B045
:104D600000AF7860FCF720FF0246194B1A60194922
:104D70000120FBF76DFD0246174B1A60164B1868B1
:104D8000002300220021FBF7DBFEFFF7D1FF124BCF
:104D90001868002300220021FBF776FD4FF4FA711A
:104DA0000120FDF715F8F860FB68002B07D00B4BCE
:104DB0001B789B020A4A1344184600F00FF9094B6E
:104DC0004FF080521A60BFF34F8FBFF36F8FE5E74C
:104DD000D4010020DC010020D8010020240A00209A
:104DE0002402002004ED00E080B584B000AF7860BC
:104DF0000B46FB700023FB60154B1B68002B21D07A
:104E0000134B1868002364220021FBF799FEF86019
:104E1000FB68002B16D00F4B1B78C3F10102FB7807
:104E2000DB01920213440C4A1A447B681A60FB7837
:104E3000C3F10803DBB2DB00DAB27B681A717B686E
:104E400080225A71FB6818461037BD4680BD00BFEE
:104E5000D8010020240A00202402002080B582B05E
:104E600000AF78600F4B1B68002B16D00E4B1B68F1
:104E7000002B12D000F008F90A4B1868002300221A
:104E80000021FBF701FD7B68002B06D0064B18685C
:104E9000002302220021FCF7E3FF00BF0837BD46D4
:104EA00080BD00BFD8010020D401002080B500AF34
:104EB000AE2000F057F8002000F054F8102000F069
:104EC00051F8402000F04EF8812000F04BF8CF2040
:104ED00000F048F8A12000F045F8C82000F042F8A2
:104EE000A62000F03FF8A42000F03CF8A82000F035
:104EF00039F83F2000F036F8D32000F033F80020D6
:104F000000F030F8D52000F02DF8802000F02AF8CD
:104F1000D92000F027F8F12000F024F8DA2000F082
:104F200021F8122000F01EF8DB2000F01BF84020D2
:104F300000F018F8202000F015F8002000F012F81A
:104F4000402000F00FF88D2000F00CF8142000F045
:104F500009F8A42000F006F8AF2000F003F800BF25
:104F600080BD00BF80B582B000AF0346FB71012158
:104F70001548FEF733FA1549134800F023F90022CB
:104F800078211148FEF7C4FA11490F4800F01AF9C8
:104F9000104B1B7819460C48FEF798FA0E490A4840
:104FA00000F010F9FB7919460748FEF78FFA0A4915
:104FB000054800F007F901210348FEF74BFA00BF4E
:104FC0000837BD4680BD00BF00540040010003000B
:104FD00082000700106000088400070080B582B0DE
:104FE00000AF78602120FFF7BDFF0020FFF7BAFF78
:104FF0007F20FFF7B7FF2220FFF7B4FF0020FFF765
:10500000B1FF0720FFF7AEFF01211248FEF7E6F9D6
:105010001149104800F0D6F8002278210D48FEF71B
:1050200077FA0E490B4800F0CDF80D4B1B78194666
:105030000848FEF74BFA0B49064800F0C3F84FF456
:10504000806279680348FFF705FC00BF0837BD465A
:1050500080BD00BF00540040010003008200070033
:10506000116000088400070080B500AFFBF722FA4A
:105070004FF400620021034800F023FFFBF744FADD
:1050800000BF80BD2402002080B500AFFBF712FAFC
:105090000D4B1B789B020D4A98180B4B1B78C3F1E4
:1050A00001039B02094A13444FF48062194600F041
:1050B000FDFE054B1B78C3F10103DAB2024B1A70F7
:1050C000FBF722FA00BF80BD240A00202402002042
:1050D00080B487B000AF78600B46FB701346BB709E
:1050E000344B9B7E0633DBB2FA78013AD2B202FB34
:1050F00003F3FB73FB7BC3F18003DA0F13445B10F4
:10510000BB73BA7BFB7B13447B732B4B1B78C3F1C4
:1051100001039B02294A13447B610023BB740023D3
:105120007B747B681B78203BDBB21A465200134429
:105130005B003B740023FB7432E0BA7BFB7C9A4239
:1051400003D2FA7C7B7B9A4203D97B6900221A70D6
:1051500020E03A7CBB7C1344194AD25C7B691A700C
:10516000BB7C0133BB74BB7C052B13D97B7C013327
:105170007B747A7CFB789A420AD27B7C7A681344EF
:105180001B78203BDBB21A46520013445B003B7491
:105190000023BB747B6901337B61FB7C0133FB74AF
:1051A00097F91330002BC8DA00BF1C37BD4680BC0E
:1051B000704700BF18000020240A002024020020AD
:1051C0007C6E000880B584B000AF786039604FF421
:1051D0007A73FB810120FCF7BDF8FB89013BFB8161
:1051E000FB89002B04D101210748FEF733F906E0C3
:1051F00039687868FEF7C6F90346002BEAD000BF8D
:105200001037BD4680BD00BF0054004080B582B05D
:1052100002AF00230093124B124A01212020FBF71A
:1052200085FA0246104B1A60002300930F4B104A78
:1052300001214020FBF77AFA02460E4B1A6000F07B
:1052400057F800F063F800F091F800F073F800F000
:10525000ADF82121084800F033F800BFBD4680BDFD
:105260004C0A00202C0A0020280A0020D80A00201E
:10527000980A0020940A00201460000880B584B0C9
:1052800000AF7860FCF798F90346FB60FFF7BEFFBC
:1052900007F10B03184600F0A5F80346002B03D0D6
:1052A000FB7A184600F0B6F8044B1A6807F10C03B5
:1052B00011461846FBF7E0FFEAE700BF3860000838
:1052C00080B582B000AF78600B46FB7007E07B686A
:1052D0001B78184600F09EF87B6801337B60FB78F2
:1052E0005A1EFA70002BF2D100BF0837BD4680BDB0
:1052F00080B500AF01214FF48040FEF79BFB0121F8
:105300000520FEF797FB00BF80BD00BF80B582B0CF
:1053100000AF25233B710C237B710023BB7101235C
:10532000FB713B1D1846FCF74FFF00BF0837BD4619
:1053300080BD00BF80B584B000AF4FF4E1333B6067
:105340000023BB800023FB8000233B810C237B8157
:105350000023BB813B4619460348FEF703FE00BF0E
:105360001037BD4680BD00BF0038014080B582B017
:1053700000AF1823FB714FF40073BB800323BB7194
:105380003B1D19460848FDF78BFD4FF48063BB8039
:105390000423FB713B1D19460348FDF781FD00BF47
:1053A0000837BD4680BD00BF0008014080B500AF92
:1053B00040F225510A48FFF76DF9012240F22551CC
:1053C0000748FEF779FF012240F227710448FEF7F3
:1053D00073FF01210248FEF721FF00BF80BD00BF1F
:1053E0000038014080B582B000AF7860084B186883
:1053F000002300227968FBF7A3FB0346012B01D1B0
:10540000012300E0002318460837BD4680BD00BFD9
:10541000280A002080B582B000AF0346FB710B4B19
:105420001868F91D00230A22FBF72EFA0346012B08
:1054300007D1012240F227710548FEF73DFF012305
:1054400000E0002318460837BD4680BD940A0020BE
:105450000038014080B582B000AF00237B6040F28D
:1054600025512048FFF750F80346002B0CD01D486B
:10547000FFF716F80346DBB2FB701B4B18683A1DAA
:10548000F91C0023FBF7D6FA40F227711548FFF705
:105490003BF80346002B16D0144B1B683A1DF91C31
:1054A0001846FBF741FC0346002B06D0FB789BB265
:1054B00019460C48FEF7B6FF05E0002240F22771BE
:1054C0000848FEF7F9FE7B68002B07D0084B4FF029
:1054D00080521A60BFF34F8FBFF36F8F00BF083742
:1054E000BD4680BD00380140280A0020940A0020F3
:1054F00004ED00E080B586B000AF786000237B61EA
:1055000007F10C0302211846FFF76EFC0346002B3F
:10551000F6D07B69002B04D0FB68184600F04CF8ED
:1055200005E0FB68184600F007F801237B610120C5
:10553000FFF794FCE4E700BF80B586B000AF786069
:1055400001233B7300237B730023FB742DE000F0E9
:10555000E1FA78610023BB7421E07B6903F54C1309
:1055600003F54C537B617B691B0A9BB203F07F03FD
:105570009BB2BA7C92B202FB03F39BB2FB81FB8924
:1055800023F001039BB2FB81BB7C3B7407F10C034E
:105590007968184600F0B4F9BB7C0233BB74BB7C5D
:1055A000072BDAD9FB7C0133FB74FB7C3E2BCED975
:1055B00000BF1837BD4680BD80B58AB000AF7860A7
:1055C000002387F8263043E197F82630002B04D0DB
:1055D00097F82630013BDBB200E00523FB7597F816
:1055E0002630052B04D097F826300133DBB200E0DB
:1055F0000023BB75002387F827301FE197F8273079
:10560000002B04D097F82730023BDBB200E07E236A
:105610007B7597F827307E2B04D097F8273002331C
:10562000DBB200E000233B75002387F82530FBE068
:10563000FA7D7B7D7968D2010A4413441B783B6272
:1056400097F826207B7D7968D2010A4413441B78A1
:105650001B021A463B6A13443B62FA7D97F82730D7
:105660007968D2010A4413441B78FB6197F826201D
:1056700097F827307968D2010A4413441B781B023B
:105680001A46FB691344FB61FA7D3B7D7968D201C0
:105690000A4413441B78BB6197F826203B7D796848
:1056A000D2010A4413441B781B021A46BB691344F7
:1056B000BB61BB7D002B2BD1BA7D7B7D7968D2018C
:1056C0000A4413441B789B09DBB21B041A463B6A4D
:1056D00013443B62BA7D97F827307968D2010A44B7
:1056E00013441B789B09DBB21B041A46FB69134465
:1056F000FB61BA7D3B7D7968D2010A4413441B7873
:105700009B09DBB21B041A46BB691344BB6124E04E
:10571000BA7D7B7D7968D2010A4413441B781B044F
:105720001A463B6A13443B62BA7D97F82730796882
:10573000D2010A4413441B781B041A46FB69134424
:10574000FB61BA7D3B7D7968D2010A4413441B7822
:105750001B041A46BB691344BB6197F825304FF40C
:10576000407202FA03F31A46FB6913403B6197F853
:1057700025304FF47C6202FA03F31A463B6A134069
:105780003B6297F825304FF44C6202FA03F31A4655
:10579000FB691340FB6197F825304FF47C6202FAF5
:1057A00003F31A46BB691340BB61F86900F05AF86D
:1057B00003467B72386A00F055F803461A467B7A36
:1057C0001344DBB27B72B86900F04CF803461A460A
:1057D0007B7A1344DBB27B723B69002B14BF01233D
:1057E0000023DBB23B7297F826309BB2DB019AB202
:1057F00097F827309BB213449BB27B8197F82530F2
:105800003B7307F10803184600F052F80346002BDB
:1058100005D007F108037968184600F071F897F889
:105820002530023387F8253097F82530072B7FF68F
:10583000FFAE97F82730023387F8273097F92730E3
:10584000002BBFF6DBAE97F82630013387F8263001
:1058500097F82630052B7FF6B7AE00BF2837BD4638
:1058600080BD00BF80B485B000AF78600023FB73BB
:105870007B689B097B600023BB730DE07B6803F0B2
:105880000103002B02D0FB7B0133FB737B689B0879
:105890007B60BB7B0133BB73BB7B0B2B02D87B686C
:1058A000002BEBD1FB7B18461437BD4680BC7047FC
:1058B00080B485B000AF78600023FB607B685B78C4
:1058C000032B09D17B681B78002B12D17B68012246
:1058D0001A700123FB600CE07B685B78022B08D018
:1058E0007B681B78002B04D07B6800221A70012390
:1058F000FB60FB6818461437BD4680BC704700BF8C
:1059000080B485B000AF786039607B681B791A4637
:1059100003239340FB737B685B88DB099BB21A46C9
:105920007B685B8803F07F03D20113443A68134419
:10593000BB607B681B78002B1AD1BB681B785AB2FE
:1059400097F90F30DB435BB213405BB2DAB2BB684E
:105950001A70BB680133BA680132127851B297F9F4
:105960000F20D24352B20A4052B2D2B21A700FE0A4
:10597000BB681A78FB7B1343DAB2BB681A70BB684A
:105980000133BA6801321178FA7B0A43D2B21A7035
:1059900000BF1437BD4680BC704700BF80B586B0DD
:1059A00004AF4FF44070FCF7E3FB2A4B02932A4B01
:1059B00001930023009300234FF480722749284865
:1059C000FBF736FB78607B68002B03D13821254834
:1059D00000F094F8244B0293244B0193012300938D
:1059E0000023402222492348FBF722FB78607B6892
:1059F000002B03D142211B4800F080F81E4B02937C
:105A00001E4B019302230093002380221C491D4852
:105A1000FBF70EFB78607B68002B03D14C2111480B
:105A200000F06CF8184B0293184B0193002300937D
:105A30000023802216491748FBF7FAFA78607B6842
:105A4000002B03D15621074800F058F8FBF7B2FCB1
:105A5000FEE700BF240F0020780F0020BC70000874
:105A60007D520008CC7000087C0B0020D00B002079
:105A7000D870000855490008D00E0020D00C002036
:105A8000E47000085D4D000878130020CC1300205E
:105A9000F4700008F554000880B582B000AF78605B
:105AA00039606621034800F029F800BF0837BD4679
:105AB00080BD00BFCC70000880B485B000AFF86036
:105AC000B9607A60FB68064A1A60BB68054A1A60CA
:105AD0007B6880221A6000BF1437BD4680BC7047C7
